:1000000040540020491D00002D550000791D0000BE
:10001000791D0000791D0000791D0000000000001E
:100020000000000000000000000000005D1C000057
:10003000791D000000000000151C00007354000032
:10004000211D0000211D0000211D0000211D0000B8
:10005000211D0000211D0000211D0000211D0000A8
:10006000211D0000211D0000211D0000211D000098
:10007000211D0000211D0000211D0000211D000088
:10008000211D0000211D0000211D0000211D000078
:10009000211D0000211D0000211D0000211D000068
:1000A000211D0000211D0000211D0000211D000058
:1000B000211D0000211D0000211D0000211D000048
:1000C000211D0000211D0000211D0000211D000038
:0C00D000211D0000211D0000211D00006A
:1000DC0053B94AB9002908BF00281CBF4FF0FF31A3
:1000EC004FF0FF3000F06CB9ADF1080C6DE904CEA7
:1000FC0000F006F8DDF804E0DDE9022304B07047F7
:10010C002DE9F047089E0D4604468E46002B40F024
:10011C0082808A42174646D9B2FA82F24AB1C2F1BB
:10012C00200105FA02F320FA01F1974041EA030E8F
:10013C0094404FEA1748230CBEFBF8FCB9B208FBFD
:10014C001CEE43EA0E430CFB01F098420AD9FB1853
:10015C000CF1FF3580F01681984240F21381ACF11E
:10016C00020C3B441B1AA4B2B3FBF8F008FB10338F
:10017C0044EA034400FB01F1A14209D93C1900F106
:10018C00FF3380F00181A14240F2FE8002383C44F2
:10019C00641A40EA0C4000211EB1D4400023C6E989
:1001AC000043BDE8F08702B9FFDEB2FA82F2002A02
:1001BC004FD1CB1B4FEA174E1FFA87F80121B3FB27
:1001CC00FEFC250C0EFB1C3345EA034508FB0CF327
:1001DC00AB4207D97D190CF1FF3002D2AB4200F2D1
:1001EC00E7808446ED1AA3B2B5FBFEF00EFB10556A
:1001FC0043EA054408FB00F8A04507D93C1900F177
:10020C00FF3302D2A04500F2D7801846A4EB0804B5
:10021C0040EA0C40C0E78B4208D9002E00F0AF80BA
:10022C000021C6E900050846BDE8F087B3FA83F162
:10023C0000294BD1AB4202D3824200F2B780841A20
:10024C0065EB030301209E46002EAAD0C6E9004EA2
:10025C00A7E7C2F1200C01FA02F3974020FA0CF048
:10026C004FEA174E21FA0CFC1843BCFBFEF1050CAF
:10027C000EFB11CC1FFA87F845EA0C4501FB08F37D
:10028C00AB4204FA02F409D97D1901F1FF3C80F06C
:10029C008B80AB4240F2888002393D44EB1A85B228
:1002AC00B3FBFEF00EFB103345EA034500FB08F3ED
:1002BC00AB4207D97D1900F1FF3C71D2AB426FD92B
:1002CC0002383D44EB1A40EA014178E7C1F1200CB9
:1002DC008B4022FA0CF71F4320FA0CF405FA01F3B9
:1002EC004FEA174E25FA0CF51C43230CB5FBFEF90F
:1002FC001FFA87F80EFB195543EA054509FB08FA66
:10030C00AA4502FA01F200FA01F308D97D1909F1A4
:10031C00FF3047D2AA4545D9A9F102093D44A5EBC6
:10032C000A05A4B2B5FBFEF00EFB105544EA0544D9
:10033C0000FB08F8A04507D93C1900F1FF352DD278
:10034C00A0452BD902383C4440EA0940A4EB0804F0
:10035C00A0FB02894C45C6464D4619D316D05EB15A
:10036C00B3EB0E0264EB050404FA0CFCCA404CEA35
:10037C000202CC40C6E900240021BDE8F0873146DA
:10038C0030460EE7AC46EDE6184601E74345E6D2AB
:10039C00B8EB020E69EB07050138E0E72846D3E716
:1003AC0060468FE78146BAE7614677E708464BE738
:1003BC00ACF1020C3D4415E702383C4426E700BF83
:1003CC00704700BF30B585B04FF00000032363F3D6
:1003DC0002006FF3C500324B324A9B1AC3F3C903B8
:1003EC0063F38F10304904F0DBFD00F09BF82F48CD
:1003FC0000F068F8A8B101A800F02CFD10B34FF084
:10040C000000012363F302006FF3C500244B254A5F
:10041C009B1AC3F3C90363F38F10254904F0C0FD85
:10042C00FEE7012363F302006FF3C5001C4B1D4A6A
:10043C009B1AC3F3C90363F38F101C4A1D4904F0C4
:10044C00AFFDFEE703254FF0000065F302006FF3EC
:10045C00C500134C134BE41AC4F3C90464F38F1096
:10046C00039A154904F09CFD4FF0000065F302005F
:10047C006FF3C50064F38F10104904F091FD01A8CF
:10048C0003F0EEFE4FF00000012363F302006FF364
:10049C00C50064F38F100A4904F082FDFEE700BF2B
:1004AC001C78000014780000687800007C7800004C
:1004BC00AC78000090780000CC780000F878000050
:1004CC001879000008B5054B1B6813B1034B18686D
:1004DC0008BD03F0FFFB014B1860F7E74801002053
:1004EC0010B900200860704708B502464FF00000B4
:1004FC00012363F302006FF3C500074B07495B1A36
:10050C00C3F3C90363F38F100023054904F048FDBE
:10051C006FF0150008BD00BF1C78000014780000B7
:10052C003879000008B54FF4C051024802F062FE61
:10053C0008BD00BF4C01002070B5A4B0202928D8FC
:10054C0006460D460024144B1B68A3421CDD09A86B
:10055C0006F07CFE002109A802F07AFF0F4B03EB9A
:10056C00C4025268126853F8341009A806F074FEDD
:10057C0001A909A806F0B3FE2A46314601A805F0E8
:10058C0005F818B10134DEE74FF0FF34204624B0F3
:10059C0070BD4FF0FF34F9E75C7900006079000022
:1005AC002DE9F041D6B014461D465F9E04965E9E22
:1005BC00039606AE02965D9E01965C9E009603F035
:1005CC0096FE0646002840F08280609B23B12022D4
:1005DC0006A9184604F0F1FF002300934FF6FF73B1
:1005EC002A4621464EA803F0C1FE064600286ED1CD
:1005FC00074680464FF0FF341DE04FF0FF341AE001
:10060C004FF0FF3417E04FF0FF34012713E0BDF833
:10061C005231202B5FD10EAA5599284604F0B9FD12
:10062C0000285BD120220EA906A804F0AFFF0028F9
:10063C0056D14FF0010854AB0DF5A97255A94EA82F
:10064C0003F0F9FE002840DB38DCBDF85021102AFD
:10065C00DDD0012A21D0202AEDD1002CCDDB294B75
:10066C001B68A342CCDDBDF85231B3F5807F3FD17E
:10067C000EAA5599284604F08CFD00283BD1E4B213
:10068C000094BDF852310EAA202106A800F0AEF855
:10069C000028B8D04FF0FF34CDE7BDF85231202BF5
:1006AC0021D80EAA5599284604F073FDF0B99DF88F
:1006BC0052110EA8FFF740FF0446BCE7B8F1000F3B
:1006CC001CD027B94FF0FF3601E04FF0FF36304613
:1006DC0056B0BDE8F0814FF0FF36F8E70646F6E776
:1006EC004FF0FF36F3E74FF0FF36F0E70646EEE744
:1006FC004FF0FF36EBE74FF0FF36E8E74FF0FF36F1
:10070C00E5E700BF5C79000070B5ADF51C7D0E46C9
:10071C0019464368B3F5807F51D1202A52D141AAA2
:10072C0002F054FE054600284FD19DF80332BC2B35
:10073C004ED10DF2E31109A803F02BFF2B46DE2B53
:10074C0007DC41AAD25C09A8C45C6240C2540133E4
:10075C00F5E79DF8243003F07F038DF82430BD2D90
:10076C0004DC09AB5B5DB3BB0135F8E79DF8E23007
:10077C00012B35D181A806F069FD002181A802F07A
:10078C0067FE0822184981A806F066FD2022314632
:10079C0081A806F061FD20220DF1E30181A806F08D
:1007AC005BFD01A981A806F09AFD20220DF2E31150
:1007BC0001A804F0EBFE80B14FF0FF300DE04FF0DC
:1007CC00FF300AE04FF0FF3007E04FF0FF3004E05D
:1007DC004FF0FF3001E04FF0FF300DF51C7D70BD88
:1007EC004FF0FF30F9E700BF687900002DE9F043C6
:1007FC00ADB006460F4690461D469DF8D09000229F
:10080C00114601A806F0DCFC114C54F83930009369
:10081C0004EBC904626812681A44694601A803F023
:10082C0066FE044610B9029BAB4206D001A806F046
:10083C00D5FC20462DB0BDE8F08343463A46314600
:10084C0001A8FFF761FF044601A806F0C7FCF0E71A
:10085C006079000008B51022034904F097FE08B136
:10086C00022008BD0120FCE7BC79000030B585B042
:10087C0002A9012003F036FF00286ED16946022040
:10088C0003F030FF00286AD1002407E02B79042BF9
:10089C0029D09DF80A20934225D00134022C48D847
:1008AC0004EB44032F4A02EB43059DF8081012F8A1
:1008BC00130003F0A5FE0028EFD09DF80010687817
:1008CC0003F09EFE0028E8D0AB78042B03D09DF8F3
:1008DC000B209342E1D1EB78042BD7D09DF8032069
:1008EC009342DAD1D2E74FF00000032363F3020006
:1008FC006FF3C5001C4B1D4A9B1AC3F3C90363F36A
:10090C008F106B79022B07D0032B10D0042B01D046
:10091C00174A02E0174A00E0174A184904F040FB56
:10092C006879831EDBB2022B15D9FF2013E0144A21
:10093C00F3E74FF00000032363F302006FF3C500ED
:10094C00094B0A4A9B1AC3F3C90363F38F100D4971
:10095C0004F026FB012005B030BDFF20FBE7FF2093
:10096C00F9E700BFCC7900001C7800001478000077
:10097C008079000094790000707900009C79000067
:10098C0078790000AC79000002680E4B9A420DD1C8
:10099C00C2680389D84382420CD810B4D418012001
:1009AC0010B18B68A34203D910BC7047002070476C
:1009BC000020F9E7002010B18B68A34200D97047E2
:1009CC00002070473DB8F39600B587B01346002061
:1009DC000490039002904FF480720192054A0092A9
:1009EC000A460146FFF7DCFD10B907B05DF804FBC1
:1009FC000320FAE7AC2500202DE9F04182B0064631
:100A0C000C461546002003F04EFC01A9C0B200F0C4
:100A1C0079FE28B14FF0FF35284602B0BDE8F081D1
:100A2C002C2101FB04672146304603F0E6FE00282A
:100A3C0058D03B6913F0100F59D134B106F1400175
:100A4C0006F1140003F063FEF0B9DDF804804146B2
:100A5C003846FFF799FF002833D1002C3AD14FF0DC
:100A6C000000012363F302006FF3C500214B224AFF
:100A7C009B1AC3F3C90363F38F108CBB1F4A204925
:100A8C0004F08EFA01252EE00021304603F0B5FE6D
:100A9C000028DAD001254FF0000065F302006FF357
:100AAC00C500144B144A9B1AC3F3C90363F38F108C
:100ABC00144904F075FA01988268002104F0B8FB1F
:100ACC0011E02B46424639463046FFF77DFF05467E
:100ADC0048B1C2E701988268002104F0A9FBBEE787
:100AEC00094ACCE70125019804F052FB94E7012553
:100AFC00F9E700BF1C78000014780000EC790000C6
:100B0C001C7A0000F4790000E079000038B5044646
:100B1C000D4603F0BAFE68B900221146204603F0D8
:100B2C00CAFEE8B9204600F09DF978BB012384F891
:100B3C00583014E04FF00000022363F302006FF30F
:100B4C00C500264B264A9B1AC3F3C90363F38F10C7
:100B5C008022244904F024FA012384F8583038BD4B
:100B6C004FF00000022363F302006FF3C5001B4B30
:100B7C001B4A9B1AC3F3C90363F38F1000221A4953
:100B8C0004F00EFA012384F85830E8E7284603F005
:100B9C00C9FE284603F0D0FE60B1EB79012B12D0D0
:100BAC002A4601212046FFF727FF98B1052384F838
:100BBC005830D4E72A460021204603F07CFE01235E
:100BCC0084F85830CBE72946204603F08FFE84F892
:100BDC005800C4E7EB7984F85830C0E71C78000063
:100BEC0014780000407A0000807A00002DE9F84F5C
:100BFC00884691461F46DDF828A00B9E00250FE085
:100C0C0023460F4AE919404604F0C3FAA0B923461B
:100C1C000B4A05EB0A01484604F0DAFA70B9254490
:100C2C00B54206D2741BB4F5806FE9D94FF48064D9
:100C3C00E6E70020BDE8F88F0120FBE70120F9E78B
:100C4C00AC1900202DE9F04186B00746002403942E
:100C5C0003AA012103F07AFD03264FF0000066F38E
:100C6C00020064F3C500344D344BED1AC5F3C905CD
:100C7C0065F38F10324904F093F94FF0000066F3DE
:100C8C00020064F3C50065F38F102E4904F088F957
:100C9C0005A9012000F036FD04A9022000F032FD68
:100CAC00D7F82880254644450ED27B6A03EBC40353
:100CBC005E6832462946059803F04FFE3544039B87
:100CCC00AB4201D90134EEE74FF00000032363F38C
:100CDC0002006FF3C500184B184A9B1AC3F3C903E3
:100CEC0063F38F102A46184904F05AF90195002431
:100CFC0000942346059A04993846FFF777FF3B6D1D
:100D0C005A682146049803F028FE7B6D013B3A6D2E
:100D1C0002EBC30052F8331013684268C91A0498E6
:100D2C0003F01BFE059804F033FA049804F030FA33
:100D3C00204606B0BDE8F0811C7800001478000055
:100D4C00A87A0000D87A0000F47A000070B584B05C
:100D5C0004460D466022002104F053FC384B6362BC
:100D6C00384B236500260CE03146002003F09BFA3B
:100D7C002C2101FB06F120312144C0B200F0C2FC51
:100D8C000136012EF0D969462046FFF7BFFE94F8D4
:100D9C0058308DF80730042B07D8022B29D2012BA1
:100DAC0005D0FF2384F8583001E0052BF9D194F8D5
:100DBC005830FF2B22D0012B06D06A46002120464A
:100DCC0003F079FD064690B9002211462046FFF744
:100DDC0013FE064620BB10220021684604F011FCCD
:100DEC00236A5B782B71236A5B68AB602C600025EF
:100DFC0021E06946204603F0B4FDD8E74FF000002F
:100E0C00012363F302006FF3C5000F4B0F4A9B1ACB
:100E1C00C3F3C90363F38F100D4904F0C1F8FEE767
:100E2C000326E4E7C5F101032C2202FB0343186AF5
:100E3C0004F0AEF90135012DF4D9304604B070BD83
:100E4C00AC1D0020AC2100201C78000014780000A0
:100E5C00307B000008B501460148FFF777FF08BD5D
:100E6C004C190020F8B5876AD0F854C0802F08D8E8
:100E7C00BCF1800F05D800252C462B4629462A4666
:100E8C001EE04FF00000022363F302006FF3C50075
:100E9C00394B3A4A9B1AC3F3C90363F38F10384991
:100EAC0004F07EF80020F8BD466A06EBC3067668AF
:100EBC003244066D06EBC4067668314401330134C6
:100ECC00BB4201D364453DD29142EDD091421CD935
:100EDC00466A06EBC30676683244022D02D0013313
:100EEC000125EDE74FF00000022363F302006FF3DE
:100EFC00C500214B214A9B1AC3F3C90363F38F101E
:100F0C00204904F04DF80020CDE7066D06EBC40631
:100F1C0076683144012D02D001340225D0E74FF020
:100F2C000000022363F302006FF3C500124B134A57
:100F3C009B1AC3F3C90363F38F10124904F030F802
:100F4C000020B0E7BB4201D1644512D04FF0000045
:100F5C00022363F302006FF3C500074B074A9B1A89
:100F6C00C3F3C90363F38F10074904F019F8002089
:100F7C0099E7012097E700BF1C7800001478000067
:100F8C00387B0000647B0000987B0000BFF36F8F00
:100F9C0072B6002308E003F120010B4A4FF0FF303A
:100FAC0042F821000133DBB2072BF4D9002308E00F
:100FBC0003F16001044A4FF0FF3042F82100013385
:100FCC00DBB2072BF4D9704700E100E008B50B68E1
:100FDC0001330B60014B1B68984708BD00000020D3
:100FEC002DE9F84F81468A4615469B460A9B002BF5
:100FFC0005DD4FF001080A260027214C13E00123E0
:10100C000A93F6E7B5FBF4F051463030C84708F1C7
:10101C0001080127013EB5FBF4F304FB1355194BF2
:10102C00A3FB0434E408092C14D9002FEAD1AC42F8
:10103C00E8D90A9B9E42EDDCBBF1020FEAD8BBF16A
:10104C00010F05D020205146C84708F10108E1E7FF
:10105C003020F8E7514605F13000C847BBF1030FCB
:10106C0001D0BDE8F88F0A9BA3EB080808F1FF3408
:10107C00B8F1000FF5DD51462020C847A046F5E732
:10108C0000CA9A3BCDCCCCCC014B1860704700BF4A
:10109C000000002000B583B002460B4600210191F0
:1010AC0001A9034803F0ECFC03B05DF804FB00BF9E
:1010BC00D90F00002DE9F04383B080460F46164649
:1010CC00124B1B6898470546002400E00134104B76
:1010DC00104A9B1AB4EB231F14DA0E4800EB0410D1
:1010EC0043685B79002BF1D023010A4AD358D3F81B
:1010FC000490B9F1000FE9D000963B462A464146D0
:10110C00C847E3E703B0BDE8F08300BF040000204C
:10111C005C7800003C78000008B5044B044A1A6067
:10112C004FF4004000F00EFA08BD00BF0400002090
:10113C00A54F0000054B064A9B1AB1EBD30F02D208
:10114C0052F8310070470020704700BF3C78000017
:10115C001478000008B50B4BC31A1B1101334268FD
:10116C00137143681960436801225A71064B1B784E
:10117C001BB1054B01221A7008BD044802F0BCFFDC
:10118C00F7E700BF3C780000302C002084000020E2
:10119C0038B5154BBFF35B8F53E8002F511C43E858
:1011AC0000100028F8D1BFF35B8FDAB9002405E0FA
:1011BC00042200212846FFF7CDFF01340B4B0C4ACB
:1011CC009B1AB4EB231F0DDA094D05EB04152B7B91
:1011DC00002BF2D02301064AD3585B69002BE7D0D1
:1011EC009847E5E738BD00BFAC2600205C780000CE
:1011FC003C780000104B1B7803B1704710B5FFF71B
:10120C00C7FF002400E001340C4B0D4A9B1AB4EBD1
:10121C00231F0CDA0A4800EB041043685B79002B9F
:10122C00F1D02301064AD3581B699847EBE7024BD0
:10123C0001221A7010BD00BF312C00205C78000018
:10124C003C7800000EB400B582B0014603AB53F8F5
:10125C00042B0193044803F013FC002002B05DF84A
:10126C0004EB03B0704700BFD54F0000F0B585B05C
:10127C0011F0440F05D01A4B1C6834B9002005B08E
:10128C00F0BD1849FFF7DEFFF9E7174B1968B2FB01
:10129C00F1F1B1FBF4F5154AA2FB0532D20A4FF479
:1012AC00616606FB1256124BA3FB06735B0904FB2B
:1012BC0015114FF47A7505FB01F1B1FBF4F707FB3F
:1012CC00141105FB01F1B1FBF4F402940197C3EB8B
:1012DC000311A6EB810100910649FFF7B3FFCEE79E
:1012EC00B0260020D87C0000B4260020C5B3A29103
:1012FC0089888888E47C000061B108B52AB1064A67
:10130C0052F8232012B9054A00E0044A0449FFF7B9
:10131C0099FF08BD704700BF607D0000007D000094
:10132C00087D000011F0100F0BD108B511F0200F43
:10133C0003D00449FFF786FF08BD0349FFF782FF7E
:10134C00FAE770470C7D0000107D00002DE9F0419C
:10135C0005460F46164698460699FFF7E3FF00240C
:10136C00444505DA23492846FFF76CFF0134F7E7BB
:10137C00002409E01F492846FFF764FF0BE01E49D3
:10138C002846FFF75FFF01340F2C0CDC002C02DD2C
:10139C0014F0070FEED0B442F1D23A5D174928464B
:1013AC00FFF750FFEFE716492846FFF74BFF0024E5
:1013BC0009E010492846FFF745FF0BE01149284684
:1013CC00FFF740FF01340F2C12DC002C02DD14F06F
:1013DC00070FEED0B44206D23A5DA2F120035E2B89
:1013EC00ECD92E22EAE703492846FFF72BFFE9E761
:1013FC00BDE8F081387D00001C7D0000147D0000EC
:10140C00207D0000247D0000F8B5044616461D46DC
:10141C0049B9002786B10123079A934013F0100FA6
:10142C0016D10C4E09E00C4B079A53F822200B49AD
:10143C00FFF708FF0746EDE7064E06992846FFF72B
:10144C0079FE024631462046FFF7FCFE3844F8BDD3
:10145C00034EF2E7287D0000747D0000347D00000F
:10146C00307D000070B584B005461E46C1F3C20342
:10147C00C1F3891011F007040FD1089B324629469D
:10148C00104803F0FDFA94B9304603F0B7FD98B15B
:10149C000D492846FFF7D6FE0EE00290019300940A
:1014AC00134601220999284603F0CBFDE5E72246B5
:1014BC000999284603F0B9FD284603F0E9FD04B06C
:1014CC0070BD00BFD54F00003C7D00002DE9F047FA
:1014DC0084B007461D460C9E0D9CDDF8388001F04B
:1014EC00070AC1F3C203C1F3891102910193CDF82C
:1014FC0000A013460122414603F0A3FD81462A4673
:10150C000F493846FFF79EFE74B12546102C28BFB4
:10151C001025CDF800804B462A4631463846FFF759
:10152C0015FF2E44641BEFE752464146384603F044
:10153C007CFD384603F0ACFD04B0BDE8F08700BF7D
:10154C00087D0000074B01221A60074B984205D911
:10155C004008044A13685B001360F6E7034B1860FD
:10156C00704700BFB426002040420F00B026002078
:10157C0008B5034802F0AEFB024B586008BD00BF33
:10158C00887D0000C026002008B5024803F080FDCD
:10159C0008BD00BFBC7D000000B585B00F200290D7
:1015AC0007980190069800900248FFF78FFF05B04E
:1015BC005DF804FBBC7D000000B583B00F200190EA
:1015CC00049800900248FFF74DFF03B05DF804FB50
:1015DC00BC7D0000014B01221A707047332C002097
:1015EC0008B518B9044B00221A7008BD41F28830B6
:1015FC0005F0E5FFF9E700BF332C002038B50446B1
:10160C000A4B01221A700A4B1B7803B938BD002013
:10161C0000F0D0FA0028F9D0044B1B78002BF5D041
:10162C00651E2046FFF7DCFF2C46F0E7332C00202C
:10163C00342C0020F8B506460D46042706E0384643
:10164C00FFF7DCFF9CB90D4B1B7883B12A46314662
:10165C00002000F04BFA04460028F0D1074B1B7811
:10166C00002BEFD0013F3846FFF7BAFFEAE714B979
:10167C00024B1B7803B92C462046F8BD332C0020B6
:10168C0008B5034B01221A70024803F001FD08BD96
:10169C00342C0020F47D000000B585B00F200290A2
:1016AC0007980190069800900248FFF70FFF05B0CD
:1016BC005DF804FBF47D000000B583B00F200190B1
:1016CC00049800900248FFF7CDFE03B05DF804FBD0
:1016DC00F47D000010B404460023084A12689A42B4
:1016EC0009DD1A010649096801EB03108A5CA24264
:1016FC0002D00133F1E7002010BC7047547E00008B
:10170C0008000020084B1B683BB110B50C46FFF7D6
:10171C00E1FF28B12060002010BD6FF00C00704775
:10172C006FF00100F8E700BF0800002000B58BB097
:10173C0003AB0093024B03F004FD0BB05DF804FB0C
:10174C001351000010B504460A2807D0074B18683F
:10175C00E1B283685B689847204610BD034B18685C
:10176C0083685B680D219847F0E700BFE4260020F2
:10177C0010B5044C204600F06DFC2046FFF784FCAD
:10178C0010BD00BF5117000008B5044802F0A2FAC2
:10179C00034B1860FFF7ECFF002008BD887D0000AC
:1017AC00E426002008B501214FF4807003F077FD8A
:1017BC0028B100210A4803F098FD437A33B1022185
:1017CC004FF4827003F06BFD28B908BD002104486A
:1017DC0003F010FEF3E70121014803F00BFEF4E7E0
:1017EC00340000202DE9F04780460F461546CCB258
:1017FC00214603F080FD81462146404603F075FDED
:10180C00064625B1294603F0B4FD002841D14FF01E
:10181C002002EFF3118382F31188BFF36F8F347AB8
:10182C000134E4B2347283F31188BFF36F8F85B146
:10183C0003F04FFD96F809A0BAF1000F0ED003F09B
:10184C004EFDBAF1000F04D06B68AA6839464046C9
:10185C009847012C07D00020BDE8F0872946304678
:10186C0003F094FDEBE7012F07D099F8023003F158
:10187C00804301221A600020EEE7074B1B78002BF7
:10188C00F3D14FF4A57005F09AFE034B01221A70A8
:10189C00EBE76FF00F00DFE7352C002020F07F40E6
:1018AC00014BC3F84005704700100140014BD3F8C1
:1018BC00400570470010014082B0044B00221A60B2
:1018CC001B680193019B02B0704700BF401101409F
:1018DC00024B4FF48032C3F8442370470010014090
:1018EC00024B4FF48032C3F80823704700100140BC
:1018FC00024B4FF48032C3F80423704700100140B0
:10190C00014BD3F8040570470010014038B5FFF7C0
:10191C00D3FFFFF7CBFF054D2C68214603F0A5FD47
:10192C0004442C6002F02CFC38BD00BF00270020C2
:10193C0038B5FFF7E5FF0446FFF7B8FF0546FFF79C
:10194C00BBFF2046FFF7AAFFFFF7C2FF2146284640
:10195C0003F08BFD012805D0054B4FF40032C3F882
:10196C00802138BD0F2005F02AFEFFF7A5FFF3E715
:10197C0000E100E038B5134802F0ACF9F0B1826830
:10198C00126801219047104D0024C5F80845FFF757
:10199C0093FF0E4B4FF40032C3F88021FFF7A8FFE2
:1019AC0022460121112000F073F9112000F060F99A
:1019BC000123074A13602B60204638BD4FF0FF30DF
:1019CC00FBE700BF587E00000010014000E100E082
:1019DC000810014038B5B0F1FF3F1ED0441E114B2A
:1019EC009C4201DC002C1BDD0E4B9C4200DD0E4C9E
:1019FC00FFF786FF0D4B1D68294603F036FDB0F549
:101A0C00000F00D3002420440130B0F5000F00D3A8
:101A1C000548284403F05FFD38BD00F50000DDE704
:101A2C000024E5E7FEFF7F00FFFF7F00002700207A
:101A3C0010B54FF02003EFF3118483F31188BFF33B
:101A4C006F8FFFF75DFF044B196803F00EFD84F3F5
:101A5C001188BFF36F8F10BD0027002038B54FF0F1
:101A6C002003EFF3118583F31188BFF36F8FFFF71A
:101A7C0047FF054B1C68214603F0F7FC204485F317
:101A8C001188BFF36F8F38BD0027002010B5114CA3
:101A9C00032323616361104AA261104BE3614FF48D
:101AAC00806323620023A3626362E36222660C4AB2
:101ABC0062661022A2662367E36663670949E01D2C
:101ACC0003F051FD0849204603F04DFD2023A3717E
:101ADC0010BD00BF04270020B07E0000BC270020F2
:101AEC00AC270020BC7E0000C07E00002DE9F8432E
:101AFC0004460E46154600EB40032D4A02EBC3028A
:101B0C00936A576ABB424BD800EB4002284901EB61
:101B1C00C202D2F82080A8EB070909F1FF329542E6
:101B2C0004D913449D4216D900203EE0DFF8808092
:101B3C00631C03EB430308EBC30358682A46314686
:101B4C00384403F03AFD3D4404EB440408EBC40470
:101B5C006562012029E0431C03EB4303144A02EBAA
:101B6C00C30358684A463146384403F026FDA7EBB8
:101B7C0008077F1907D104EB44040D4B03EBC40495
:101B8C006762012011E0631C03EB4303084A02EB7C
:101B9C00C3033A4606EB0901586803F00EFDEAE769
:101BAC00DB1B013BAB42C1D20020BDE8F88300BF78
:101BBC0004270020064B00EB400203EBC202926AA2
:101BCC0000EB400003EBC000406A801A704700BF76
:101BDC0004270020094A93685867094909689967DE
:101BEC0008494B6843F080534B60002383F3118802
:101BFC00BFF36F8F9368986F704700BF042C002061
:101C0C00B880000000ED00E00F498A684FF0380002
:101C1C001044EFF3098C80E8F01F202080F311882A
:101C2C00BFF36F8F094F4FF00066CA698A603E6040
:101C3C00506F0023536780F3118802F1380090E84D
:101C4C00F01F8CF309887047042C002004ED00E091
:101C5C001EF0040F0CBFEFF30880EFF309808169CD
:101C6C0011F8021C0229FFD001B503F053FC01BD91
:101C7C0043B2002B08DB00F01F005B09012202FAC3
:101C8C0000F0024A42F82300704700BF00E100E078
:101C9C00013143B2002B08DB4901C9B203F16043A7
:101CAC0003F5614383F80013704700F00F004901FE
:101CBC00C9B2014B1954704714ED00E001491022D0
:101CCC000A60704710ED00E030BFFFF7FDBF00BFAA
:101CDC0008B50E4B0E4A22F07F029A60BFF34F8F6D
:101CEC00BFF36F8FD3F8882022F47002C3F88820DA
:101CFC00EFF3148323F0040383F3148802F010F839
:101D0C0002F01AF800F022F902F052F800ED00E0AF
:101D1C000000000001B5EFF30580A0F110004FEAC0
:101D2C00C0000449014409C99847BDE80140024973
:101D3C0008470000DC760000551F000003F081FC12
:101D4C00202080F3118808484FF40061401880F37C
:101D5C000988EFF314800221084380F31488BFF341
:101D6C006F8FFFF7B5FF000040540020EFF30880A1
:101D7C00EFF30981724601B500F094F801BD00BF84
:101D8C0010B514460F4B9A6A9A6A9B6A13F0020FAD
:101D9C000BD00C4B5A6B9B6A13F0800F05D021B102
:101DAC00084A936A23F080039362064B9A6A9A6AF4
:101DBC009A6A9A6A42F0FF029A6203F0B7FB2070AB
:101DCC00002010BD00ED00E010B51446124B9A6ACD
:101DDC009A6A9B6A13F4007F0BD00F4B9A6B9B6A29
:101DEC0013F4004F05D021B10B4A936A23F400433E
:101DFC009362094B9A6A9B6A13F4807F01D1064B5C
:101E0C009B6A054A936A43F47F43936203F08EFB0B
:101E1C002070002010BD00BF00ED00E0074B9A6A57
:101E2C009A6A9A6A9A6A9A6A9A6A9A6A6FEA0242F1
:101E3C006FEA12429A620020704700BF00ED00E08A
:101E4C0000230B70144BDA6A12F0020221D110B588
:101E5C000446D86A10F0804010D028331B7843B960
:101E6C000E4B1B785BB90E4B1B889BB26BB91046A3
:101E7C0004E00A4601212046FFF782FF10BD0A4606
:101E8C0001212046FFF7A0FFF8E72046FFF7C6FF29
:101E9C00F4E70020704700BF00ED00E029ED00E002
:101EAC002AED00E070B58AB00C46224B5968C1F39C
:101EBC000801002383F31188BFF36F8F02F07F4377
:101ECC00B3F17F4F15D102F00C03082B14D012F094
:101EDC00080F0BD000260DF12702204603F028FB3B
:101EEC0005469DF8273053B10AB070BD0446012653
:101EFC00F1E700263446EEE700263446EBE72022D5
:101F0C00214601A803F059FB4EB1089BC3F308020C
:101F1C005AB96FEA53236FEA4323089305E0089BF1
:101F2C0023F4FF7323F00103089301A9284603F05F
:101F3C00EDFAD9E700ED00E0024A536943F01003D3
:101F4C005361704700ED00E0704700BF002206E0CF
:101F5C0002F00F01094B0B44202119760132262A7D
:101F6C000ADC53B2002BF3DB03F1604303F561434E
:101F7C00202183F80013F1E7704700BFFCEC00E070
:101F8C0038B504464FF02003EFF3118583F3118825
:101F9C00BFF36F8F02F00EF80A4B9B68A34203D07D
:101FAC00284605F0A0FA38BD074B5B68C3F308035D
:101FBC002BB1054A536843F080535360F0E7284631
:101FCC00FFF708FE042C002000ED00E0064A9060AC
:101FDC000B6823F01F03034343F01003D3608B689B
:101FEC0043F001031361704790ED00E0034B0522B1
:101FFC005A60BFF34F8FBFF36F8F704790ED00E0C7
:10200C00BFF35F8F014B00225A60704790ED00E0E8
:10201C0038B50E4B1D68082D15D8FFF7F1FF0024BD
:10202C00A5420AD9094B596804EB440293001944A0
:10203C002046FFF7CBFF0134F2E7054B1D70FFF78D
:10204C00D5FF002038BD4FF0FF30FBE7DC7E0000F1
:10205C00362C0020014B1860704700BF0C0000208C
:10206C004FF02003EFF3118283F31188BFF36F8FCE
:10207C0001230649C1F840354FF08041C1F878354D
:10208C0082F31188BFF36F8F0020704700E001408E
:10209C0030B108B58001034B43F00103984708BDEC
:1020AC00704700BF60780000F0B443685F68344B41
:1020BC001340344CA34227D012D8062B26D004D977
:1020CC00B3F5801F09D1012416E00BB3022B01D10B
:1020DC00042411E06FF0150043E06FF0150040E0B0
:1020EC00294CA34216D0B3F5A00F01D1032403E071
:1020FC00B3F5800F41D1022412F0100F0CD112F065
:10210C00200F30D0012508E00724F5E70624F3E77B
:10211C000024F1E70524EFE70325C2F3402312F472
:10212C00807F0CBF0126002612F4007F06D012F42B
:10213C00006F1AD001228A40C7F808254268127A2B
:10214C0001F01F0141EA421143EA460343EA8503C9
:10215C0043EA042301F5E0714FF0A04242F821302C
:10216C000020F0BC70470025D7E712F4806FE5D053
:10217C0001228A40C7F80C25E0E76FF01500F0E764
:10218C000600F000060010000200400070B584B09C
:10219C00002303932F4B1C680CB900210BE02E4835
:1021AC0003F0DCFA03902B4B00221A601B6801939E
:1021BC00019BF2E70131072928D801F140039B006C
:1021CC009AB201238B402548D0F804030342F1D086
:1021DC0002F1804303F5C0431B68002BEAD001F5E4
:1021EC00A2731E4850F82300C0F30420012303FA05
:1021FC0000F0039B0343039302F1804303F5C043B8
:10220C0000221A601B680293029BD3E7039E16B947
:10221C00E4B904B070BD104BDB68596819B10D46B8
:10222C0049B10D6807E00D4605E06DB12B4605B1CF
:10223C002B6829461D460029EAD08A683240F4D022
:10224C004B6805489847F0E72B46F2E7024803F045
:10225C0055FADEE77C61004064000020006000401D
:10226C000023072B4AD870B483B001249C40BFF3E1
:10227C005B8F50E8005F45EA040640E8006CBCF157
:10228C00000FF6D1BFF35B8FDD4015F0010F08D0C6
:10229C000133DBB2072BE8D96FF0120003B070BC2E
:1022AC00704703F14000800080B2164D03F5A27315
:1022BC0055F8236026F4473626F4407645F823601B
:1022CC0055F82360090201F4F851120402F440326B
:1022DC000A43324345F8232000F1804202F5C04204
:1022EC000020106012680192019A55F8232042F0E8
:1022FC00010245F82320C5F80443CFE76FF0120024
:10230C00704700BF0060004008B50B4B1B780BB149
:10231C00002008BD084B01221A700022052106205E
:10232C00FFF7B6FC0620FFF7A3FC044B4FF000426E
:10233C00C3F80423ECE700BF372C002000600040FA
:10234C0030B41D4BD3F80453EDB2002300E001333D
:10235C00072B2ED803F5A272174C54F82220C2F387
:10236C0004229142F3D125FA03F212F0010FEED0C0
:10237C0003F01F02012101FA02F25C0900EB840058
:10238C00D243BFF35B8F50E8004F144040E8004548
:10239C00002DF8D1BFF35B8F074A03F5A27452F8F6
:1023AC00240020F0010042F8240001FA03F3C2F8E3
:1023BC00083330BC704700BF0060004070B50D465C
:1023CC00C66843681B7A01F01F0444EA4314214693
:1023DC002248FFF7B5FF4FF0A04204F5E07152F828
:1023EC00213023F4403342F82130F368EB4013F0F2
:1023FC00010F30D07369EB4013F0010F14D0B369A7
:10240C00EB4013F0010F07D1316921FA05F515F0F6
:10241C00010F07D0012200E0032221460F48FFF7ED
:10242C001FFF19E00222F8E7316921FA05F515F0D2
:10243C00010F0ED103214FF0A04204F5E07452F8C5
:10244C00243023F4403343EA014342F82430002083
:10245C0002E00221EFE7002070BD00BFD82B002066
:10246C00034BD3F8003413F0010FF9D0704700BFC1
:10247C0000E00140024B0B6001231360704700BF6A
:10248C00DC2B002000487047507F000010B503F093
:10249C0023FB034C206003F01BFB6060002010BD8D
:1024AC00DC2B0020054B1B6823B9054B1B781BB19B
:1024BC000120704701207047002070471C2100400C
:1024CC00382C002082B0054A002313601268019258
:1024DC00019A034A137002B0704700BF1C210040E0
:1024EC00382C0020B1F5164F6DD03BD8B1F5165FE6
:1024FC006BD00AD9B1F5E14F72D025D947F612232A
:10250C0099422CD14FF4000313E0B1F5966F5ED0D5
:10251C0007D9B1F5166F60D0B1F5965F11D13A4B72
:10252C0007E0B1F5967F55D0B1F5167F06D14FF483
:10253C001C33364AC2F82435002070476FF0150062
:10254C0070476FF015007047B1F5615F4AD0B1F577
:10255C00964F01D12E4BECE76FF0150070476FF0E2
:10256C0015007047B1F5613F3FD009D9B1F5612F26
:10257C0042D01DD9274B994243D14FF08053D8E715
:10258C00B1F5963F33D004D9B1F5E13F0DD1224BD3
:10259C00CFE74DF6C02399422BD0B1F5614F01D155
:1025AC001E4BC6E76FF0150070476FF015007047B3
:1025BC001B4B994222D0B1F5E12F01D1194BB8E751
:1025CC006FF015007047184BB3E7184BB1E74FF499
:1025DC009E23AEE74FF4A033ABE74FF41D23A8E7DF
:1025EC00134BA6E74FF46C13A3E7124BA1E7124B66
:1025FC009FE74FF465039CE7104B9AE74FF080631D
:10260C0097E76FF01500704700B0130000200040F2
:10261C0000A04E0040420F0000E0D70100F0EB009C
:10262C0090D0030000705F0700509D000050270001
:10263C0000F0750000B0AF0300903A0100D0BE0E60
:10264C00094B1B6863B182B0074B002018601B68F4
:10265C000193019B054BD3F818350B7002B07047F2
:10266C004FF0FF30704700BF0821004000200040B1
:10267C00024BD3F88004C3F880047047002000405C
:10268C004B79012B38D130B583B005460C468B798C
:10269C00032B35D1CB7933B1012B0ED06FF0220344
:1026AC00184603B030BD00238DF80430237943B1B4
:1026BC00022B1DD06FF02203F2E701238DF80430BA
:1026CC00F4E700238DF8053021682846FFF70AFF50
:1026DC000346C0B99DF805209DF804100A430B4928
:1026EC00C1F86C25EA6894E8030082E80300D7E798
:1026FC000E238DF80530E7E76FF02203184670477C
:10270C006FF02203CCE76FF02203C9E700200040F2
:10271C00F8B50E461546002427462B1B002B0BDD67
:10272C00FFF7C0FE40B1FFF7CDFE631C345D0348DC
:10273C00C0F81C45DCB2EFE73846F8BD002000407D
:10274C0010B483B000231846D41A002C0FDD094CAA
:10275C00246864B107480024046000680190019863
:10276C00581C054CD4F81845CC54C3B2EBE703B055
:10277C0010BC70470821004000200040024B04228E
:10278C00C3F80423704700BF00200040024B042212
:10279C00C3F80823704700BF00200040024B1868A4
:1027AC00003818BF0120704708210040024B4FF43D
:1027BC000072C3F80423704700200040024B4FF412
:1027CC000072C3F8082370470020004010B504467F
:1027DC000D4BD3F8043313F0800F07D10A4BD3F809
:1027EC00043313F0040F07D1002010BDFFF75AFE7D
:1027FC000028F3D00120F8E72046FFF7CFFF002890
:10280C00F3D00120F1E700BF00200040024B19601B
:10281C00024B1A60704700BFE42B0020E82B00200D
:10282C0000B583B0084B1B682BB1074B00221A6014
:10283C001B680193019B054B1B6813B1044A10687C
:10284C00984703B05DF804FB24210040E42B0020E2
:10285C00E82B002008B5054B8022C3F808230C3365
:10286C0001221A6004F0DCFD08BD00BF002000400E
:10287C0008B504F0D4FD0D4B01221A60083B8022F0
:10288C00C3F804234FF02002EFF3118382F3118875
:10289C00BFF36F8F064A12781AB1064A0421C2F8A8
:1028AC00001183F31188BFF36F8F08BD082000401F
:1028BC00382C002000E100E038B50C4604F079FE1D
:1028CC00C0B96425194B0122BFF35B8F53E8001F7D
:1028DC00002903D143E800200028F7D1BFF35B8F18
:1028EC000BD02120002101F0D5FB013D15F0FF0597
:1028FC00E8D102E00D4B01221A60FFF7E3FD0C4B0F
:10290C0001221A60083BC3F81C454FF47A74FFF798
:10291C00C9FD20B9012003F0AAF8013CF7D1054B01
:10292C0001221A60014B00221A6038BDEC2B0020EA
:10293C00082000400C20004030B583B04FF0A0437D
:10294C004022C3F808250324C3F818470021C3F814
:10295C002017184A0825C2F814550625C2F80C553C
:10296C002025C3F80855C3F81447C3F81C170523D2
:10297C00C2F808350723C2F81035C168FFF780FE8E
:10298C00044610B1204603B030BD0A4B0422C3F8F4
:10299C000025094900220A60096801910199012169
:1029AC001960064B19700220FFF772F90220FFF72D
:1029BC005FF9E7E70020004008210040382C002098
:1029CC000E4B1A68B2F1FF3F05D00D4B1B68062A5F
:1029DC0008D0002070470B4B1A7808331B68C3F3E0
:1029EC000313F4E7033B032B03D8DFE803F00404E1
:1029FC000404002070470120704700BF3001001014
:102A0C0034010010E00F00F0074B1A7808331B68F4
:102A1C00C3F30313062A01D000207047032B01D007
:102A2C000020704701207047E00F00F00E4B1A6831
:102A3C00B2F1FF3F05D00D4B1B68062A08D00020D1
:102A4C0070470B4B1A7808331B68C3F30313F4E776
:102A5C00033B032B03D8DFE803F004040404002039
:102A6C0070470120704700BF300100103401001086
:102A7C00E00F00F0074B1A7808331B68C3F30313FD
:102A8C00062A01D000207047032B01D0002070478C
:102A9C0001207047E00F00F00E4B1A68B2F1FF3FB7
:102AAC0005D00D4B1B68062A08D0002070470B4B35
:102ABC001A7808331B68C3F30313F4E7033B032BA7
:102ACC0003D8DFE803F0040404040020704701205D
:102ADC00704700BF3001001034010010E00F00F00F
:102AEC00074B1A7808331B68C3F30313062A01D06B
:102AFC0000207047032B01D0002070470120704745
:102B0C00E00F00F0074B1A7808331B68C3F303136C
:102B1C00062A01D000207047032B01D000207047FB
:102B2C0001207047E00F00F00D4B1B68B3F1FF3F25
:102B3C0005D00C4A1268062B08D0002070470A4BAF
:102B4C001B780A4A1268C2F30312F4E7052A05D06F
:102B5C00062A01D0002070470120704701207047E1
:102B6C003001001034010010E00F00F0E80F00F00D
:102B7C000E4B1A68B2F1FF3F05D00D4B1B68062AAD
:102B8C0008D0002070470B4B1A7808331B68C3F32E
:102B9C000313F4E7033B032B03D8DFE803F004042F
:102BAC000404002070470120704700BF3001001062
:102BBC0034010010E00F00F00E4B1A68B2F1FF3F29
:102BCC0005D00D4B1B68062A08D0002070470B4B14
:102BDC001A7808331B68C3F30313F4E7033B032B86
:102BEC0003D8DFE803F0040404040020704701203C
:102BFC00704700BF3001001034010010E00F00F0EE
:102C0C00064B1B68064A1268062B01D00020704741
:102C1C00062A01D0002070470120704730010010B7
:102C2C0034010010014B024A1A6070471800002052
:102C3C000090D00308B5FFF7C3FE28B1754B1B6895
:102C4C00C3F30423744A1360FFF7DEFE10B1734B19
:102C5C00734A1A60FFF7EAFE28B1724B1B68C3F384
:102C6C004233714A1360FFF705FF20B16F4AD368F6
:102C7C0023F08073D360FFF70FFF40B14FF0804318
:102C8C000022C3F80C21C3F81021C3F83825FFF734
:102C9C0027FF10B1664B03221A60FFF733FF58B1C0
:102CAC00644B05221A60783301221A60703B0022B3
:102CBC001A60043B3F221A60FFF736FF002846D00B
:102CCC004FF08052D2F804145B4BC3F82015D2F8A5
:102CDC000814C3F82415D2F80C14C3F82815D2F82C
:102CEC001014C3F82C15D2F81414C3F83015D2F8FC
:102CFC001814C3F83415D2F81C14C3F84015D2F8C4
:102D0C002014C3F84415D2F82414C3F84815D2F88B
:102D1C002814C3F84C15D2F82C14C3F85015D2F85B
:102D2C003014C3F85415D2F83414C3F86015D2F823
:102D3C003814C3F86415D2F83C14C3F86815D2F8EB
:102D4C004014C3F86C15D2F84424C3F87025FFF76F
:102D5C000FFF28B1394B1B6803F04F03384A13603F
:102D6C00FFF72AFF60B14FF08043D3F8003413F023
:102D7C00010F05D04FF080436FF00102C3F800241F
:102D8C00FFF73EFF20B12F4A136843F480631360B2
:102D9C004FF01023D3F80032002B08DB4FF0102338
:102DAC00D3F80432002B02DBFFF73CFF08BD264BA7
:102DBC000122C3F80425244BD3F80034002BFAD09D
:102DCC004FF010231522C3F800221F4BD3F8003408
:102DDC00002BFAD04FF010231522C3F804221A4B03
:102DEC00D3F80034002BFAD0174B0022C3F804257B
:102DFC00154BD3F80034002BFAD0BFF34F8F134987
:102E0C00CA6802F4E062124B1343CB60BFF34F8FDE
:102E1C0000BFFDE7240300104035014074C007409B
:102E2C000DF0ADBA440200103C050040F0ED00E09E
:102E3C00A00500401056004000C000405802001091
:102E4C00E40E00403C17004000E0014000ED00E0C3
:102E5C000400FA05024B0022C3F80425704700BF9A
:102E6C0000E00140024B0122C3F80425704700BF6B
:102E7C0000E00140024B0222C3F80425704700BF5A
:102E8C0000E00140044BD3F8003413F0010FF9D0EB
:102E9C000160BFF35F8F704700E0014010B504463E
:102EAC0002F0FAFD08B9084810BDFFF7E3FF074B25
:102EBC00C3F80845054BD3F8003413F0010FF9D0D3
:102ECC00FFF7C8FF0248EFE70A00AD0B00E0014036
:102EDC000000AD0B0268124B9A4215D1C269A3F1E6
:102EEC001023A3F1EF139A4210D18368012B0FD852
:102EFC00C36813B1026993420CD0436963B1826910
:102F0C0093420BD00020704701207047012070477E
:102F1C000120704701207047002070470120704746
:102F2C0055AA00FF70B5114B9D68B5B12846FFF747
:102F3C00D1FF064698B9EB6813B10126304670BD37
:102F4C002C69002CFAD02046FFF7C4FF48B9E3687F
:102F5C00AB4208D125462469F3E70126EEE70126AA
:102F6C00ECE70126EAE70126E8E700BFF02B00209A
:102F7C00002800F0928038B50546484B1B68002BA2
:102F8C006CD0464A9268002A68D0834204D8434ADF
:102F9C0052681344834203D8414B1B680120984765
:102FAC00A5F120042046FFF795FF18B13C4B1B6898
:102FBC000120984755F8183C012B03D0384B1B685F
:102FCC0001209847002345F8183C55F8143CCBB128
:102FDC009A68002A43D155F81C2C59680A442032AF
:102FEC005A6055F8143C55F8102C1A6155F8145CBD
:102FFC002B6903B1DD6020220021204602F001FB89
:10300C0023462C4625691DB3AA680ABB6B68626807
:10301C001344203363602B69236163690BB323B3BF
:10302C00A2699A61A3690BB162695A616B696361A8
:10303C00AA69A261EBB19C61A36903B15C612369CC
:10304C0003B1DC6020220021284602F0DAFA2B467C
:10305C0093B1124B1B6913F0020F15D138BD00232D
:10306C00D0E7A269002ADAD1E0E7A2690B4BDA605B
:10307C00D8E70A4BDC60DFE7084BDB68A36103B1E0
:10308C005C61064BDC60E4E7FFF74CFF0028E5D001
:10309C00034B1B6801209847E0E77047F02B00209A
:1030AC002000002070B54F4BDC681D68002D5AD0F5
:1030BC009D68002D57D001FB00F6002800F0888099
:1030CC00002900F08780B6FBF0F0884240F0848045
:1030DC0016F1040F00F2828016F0030F08D026F0D0
:1030EC000305043534B16368AB4203D2A469F9E734
:1030FC003546F7E7002C73D0A3681BB13A4B1B681D
:10310C00012098476268521B232A2ED905F1200111
:10311C006318203A5A6000229A60DC6022691A61B6
:10312C00324860503249D96102B1D36062695A6148
:10313C00A1699961002A3FD093619A6902B15361E8
:10314C000122A2606560236100236361A361254BAA
:10315C001B6913F0010F32D104F120053246002116
:10316C00284602F04EFA284670BD0123A36063691D
:10317C00ABB1A2699A61A3690BB162695A61002370
:10318C006361A361174B1B6913F0010F0BD104F1A1
:10319C00200532460021284602F033FAE3E7A26903
:1031AC00104BDA60E7E7FFF7BDFE0028EFD00E4BBF
:1031BC001B6801209847EAE70A4AD360BDE7FFF78E
:1031CC00B1FE0028C8D0084B1B6801209847C3E704
:1031DC000025C8E70025C6E70025C4E70025C2E79F
:1031EC002546C0E7F02B00202000002055AA00FF48
:1031FC00669911EE38B505460C4614220021134889
:10320C0002F0FFF91249134800F038F8232C1CD9AE
:10321C0015F0030304D01C44043CC3F104031D4407
:10322C0022460021284602F0ECF9084B1D605C6038
:10323C009D60203C6C609A68074911609A68A1F106
:10324C001021A1F1EF11D161DA6038BDF02B002013
:10325C007D2F0000B130000055AA00FF08B5024BCD
:10326C001B68984708BD00BF1C00002008B5024B26
:10327C001B68984708BD00BF24000020024B186053
:10328C00024B1960002070471C0000202400002015
:10329C0031B108B50A46034B1B680021984708BD9D
:1032AC00704700BF28000020F8B504460D4647685B
:1032BC0000F10806304602F096FF874251D1636850
:1032CC00B3F5807F4FD80021304603F08CF90028ED
:1032DC002ADD0021304602F05EFF28B3CDB104F1A7
:1032EC002C060021304603F07EF900281EDD00215B
:1032FC00304602F050FFC8B104F1380600213046C8
:10330C0003F071F9002811DD0021304602F043FF73
:10331C0060B1002104F1140003F065F9002824DDEC
:10332C0035B9ADB92846F8BD124DFBE7114DF9E79B
:10333C00002104F1440003F056F9002806DD0021B9
:10334C0004F1500003F04FF90028EADC094DE9E7DD
:10335C00002104F15C0003F046F9002807DD00258C
:10336C00E0E7044DDEE7034DDCE7024DDAE7014D03
:10337C00D8E700BF80BFFFFF70B50446002211469E
:10338C00FFF792FFE0B9064604F10805284602F063
:10339C0013FF7F2816D914340021204602F0FBFEBF
:1033AC0060B1204602F008FF012807D929462046C3
:1033BC0003F0D1F8002801DA304670BD024EFBE76D
:1033CC00014EF9E7004EF7E700BEFFFFF0B587B0FE
:1033DC0004460D46164600221146FFF765FF98BBC2
:1033EC0003A802F047FE6268294603A802F001FF19
:1033FC00054630B103A802F043FE15BB284607B0C2
:10340C00F0BD04F10805294603A803F0A4F8002830
:10341C0002DB6FF00305EDE7676804F168030093C6
:10342C002B4604F1140203A9084603F03FFC0546A1
:10343C000028DFD13A46314603A802F009FF0546C1
:10344C00D8E7A5F58545D9E7004DD7E780BFFFFF45
:10345C000023036043600B46B9B9194A8260194ACC
:10346C00C260194A0261194A4261194A8261194AB9
:10347C00C261194A026202F17452A2F52302A2F649
:10348C0092424262836600207047144A8260144A5A
:10349C00C26002F1794202F5740202F50162026126
:1034AC00104A4261104A826102F1D14202F5C01207
:1034BC0002F51E62C2610D4A02620D4A4262E1E7E8
:1034CC0067E6096A85AE67BB72F36E3C3AF54FA5A9
:1034DC007F520E518C68059BABD9831FD89E05C1BA
:1034EC0007D57C3639590EF7310BC0FFA78FF9641D
:1034FC00A44FFABE2DE9F04FD1B00790002306E09F
:10350C009A1C50F8222008AC44F823200133072BD6
:10351C00F6D900220F2A11D811F8224001EB8200B3
:10352C0043781B0443EA0463847843EA0423C07899
:10353C00034310A840F822300132EBE74FF0000EA5
:10354C0042E10F9B0C9E4FEAF62181EAB61181EA0B
:10355C00766119440E9C0D9884EA00033340634055
:10356C001944DFF8348758F82E3019440DF1400C0B
:10357C005CF82E301944089D4FEA753A8AEAB50A70
:10358C008AEAB55A099F05EA07030A9A45EA070928
:10359C0002EA090943EA09039A440B9B01EB03096C
:1035AC0051444FEAF92383EAB91383EA79631C4443
:1035BC0086EA000309EA030343401C440EF1010AA6
:1035CC0058F82A301C445CF82A301C444FEA7133FA
:1035DC0083EAB10383EAB15305EA010A45EA010B18
:1035EC0007EA0B0B4AEA0B0A534422441C444FEAE9
:1035FC00F22383EAB21383EA7263184486EA09035E
:10360C001340734018440EF1020A58F82A3018443B
:10361C005CF82A3018444FEA743383EAB40383EA23
:10362C00B45301EA040A41EA040B05EA0B0B4AEA1B
:10363C000B0A5344074418444FEAF72383EAB713A1
:10364C0083EA77631E4489EA02033B4089EA030359
:10365C001E440EF1030A58F82A301E445CF82A3036
:10366C001E444FEA703383EAB00383EAB05304EA92
:10367C00000A44EA000B01EA0B0B4AEA0B0A53441A
:10368C0035441E444FEAF52383EAB51383EA756388
:10369C00994482EA07032B40534099440EF1040AE3
:1036AC0058F82A304B445CF82A904B444FEA763950
:1036BC0089EAB60989EAB65900EA060A40EA060B15
:1036CC0004EA0B0B4AEA0B0AD14419440F914B4400
:1036DC000B934FEAF12989EAB11989EA71694A44D5
:1036EC0087EA050901EA090987EA090991440EF1FB
:1036FC00050A58F82A204A445CF82A904A444FEAB2
:10370C00733A8AEAB30A8AEAB35A06EA030946EA22
:10371C00030B00EA0B0B49EA0B09CA4404EB020940
:10372C00CDF8389052440A924FEAF92484EAB9143D
:10373C0084EA7964274485EA010409EA04046C40AC
:10374C003C440EF1060A58F82A703C445CF82A7086
:10375C003C444FEA723787EAB20787EAB25703EA6A
:10376C00020A43EA020B06EA0B0B4AEA0B0A57441D
:10377C0020440D903C4409944FEAF02787EAB01797
:10378C0087EA70673D4481EA090900EA090981EA80
:10379C00090129440EF1070058F8205029445CF81F
:1037AC00200001444FEA743080EAB40080EAB4503F
:1037BC0002EA0405224313402B4303440E440C96A7
:1037CC000B4408930EF1080EBEF10F0F7FF6B9AE45
:1037DC0010263F2E00F24D820F9A0C9B4FEAF327D6
:1037EC0087EAB31787EA73673A440E980D9D80EA0F
:1037FC0005071F4047403A44DFF89CB45BF826703D
:10380C001744B31E1A4610AB049253F822204FEA09
:10381C00F24484EA724484EA9224F21F53F8222080
:10382C001444A6F10F0A53F82AC04FEABC4282EAAC
:10383C00FC1282EADC021444A6F1100253F8222096
:10384C00224443F826203A4408994FEA713C8CEA0A
:10385C00B10C8CEAB15E099F3C460C400A99009170
:10386C00089941EA070C009901EA0C0C44EA0C0C8B
:10387C00F4440B9C144462444FEAF42888EAB418CC
:10388C0088EA746880440C9981EA050904EA0909FC
:10389C0085EA0909C844711C5BF821008044701E3C
:1038AC00059053F820004FEAF04C8CEA704C8CEAEF
:1038BC00902CB01F53F820008444A6F10E0E53F840
:1038CC002E904FEAB94080EAF91080EAD9006044A2
:1038DC0053F82A904844029143F8210008EB000960
:1038EC004FEA723888EAB20888EAB258089901EAB5
:1038FC00020041EA020C019707EA0C0C40EA0C0C9E
:10390C00C444009800EB0908E1444FEAF82080EA2F
:10391C00B81080EA786005440C9981EA040008EA42
:10392C00000048400544B01C01465BF820000544EB
:10393C0053F826004FEAF04C8CEA704C8CEA902C31
:10394C00701F53F820008444A6F10D0A53F82A0086
:10395C004FEAB04053F82A7080EAF71080EAD7009B
:10396C00604453F82EC06044039143F82100054491
:10397C004FEA793C8CEAB90C8CEAB95C02EA090092
:10398C0042EA090E089901EA0E0E40EA0E00844440
:10399C00019F07EB050E05EB0C0700974FEAFE2085
:1039AC0080EABE1080EA7E600C990D1884EA08014A
:1039BC000EEA010161406818F71C5BF827100144FE
:1039CC00029D53F825004FEAF04585EA704585EADB
:1039DC009025301F53F8200005440195A6F10C0CDE
:1039EC0053F82C004FEAB04053F82C5080EAF510F5
:1039FC0080EAD500019D284453F82A5028440697A4
:103A0C0043F82700014400984FEA7035074685EAD1
:103A1C00B00585EAB05509EA000049EA070A02EA4E
:103A2C000A0A40EA0A000544089800EB010A2944F6
:103A3C0001914FEAFA2585EABA1585EA7A652C4494
:103A4C0088EA0E050AEA050588EA05052544341DB1
:103A5C0002945BF824000544039953F821404FEA83
:103A6C00F44080EA744080EA9420F41E53F8244019
:103A7C002044A6F10B0753F827104FEAB14484EA0F
:103A8C00F11484EAD104044453F82C002044029924
:103A9C0043F82100054401994FEA713C8CEAB10CC2
:103AAC008CEAB15C009804460C400146019808432E
:103ABC0009EA0000204360442A440F9228440B90EA
:103ACC004FEAF22C8CEAB21C8CEA726CC4448EEA7B
:103ADC000A08039202EA08088EEA0808C444741D16
:103AEC0021465BF82440A444069D53F825504FEA28
:103AFC00F54484EA754484EA9524049A53F82250D8
:103B0C002C44A6F10A0853F828204FEAB24585EA5E
:103B1C00F21585EAD205254453F827402C4404912C
:103B2C0043F8214064444FEA703787EAB00787EACC
:103B3C00B057019901EA000541EA000C009901EA2D
:103B4C000C0C45EA0C052F4409EB040CCDF838C0DD
:103B5C003C440A944FEAFC2787EABC1787EA7C6747
:103B6C007744039D8AEA050E0CEA0E0E8AEA0E0EC5
:103B7C00774406F106095BF829502F44029D53F84F
:103B8C0025504FEAF54E8EEA754E8EEA952E059A23
:103B9C0053F82250AE44A6F10902029253F8225077
:103BAC0029464FEAB54585EAF11585EAD1057544F4
:103BBC0053F828E0754443F829502F444FEA7435E4
:103BCC0085EAB40585EAB45500EA040940EA040E16
:103BDC00019A02EA0E0E49EA0E09A9440099CD1980
:103BEC000D954F4409974FEAF52E8EEAB51E8EEAD5
:103BFC00756ED644039A82EA0C0C05EA0C0C82EA28
:103C0C000C02724406F107085BF8285002EB050E13
:103C1C00049953F821504FEAF54282EA754282EA40
:103C2C00952253F826100A44A6F1080553F825C02E
:103C3C004FEABC4585EAFC1585EADC052A44029D61
:103C4C0053F825502A4443F8282072444FEA77331E
:103C5C0083EAB70383EAB75304EA070527433840DE
:103C6C0028431844019911440C91104408900836CB
:103C7C00AFE50023079809E008AA52F82340991CE5
:103C8C0050F82120224440F821200133072BF3D98E
:103C9C00002051B0BDE8F08FA47F000070B506463F
:103CAC000B4B53F8204000E00834731C084A52F8C0
:103CBC002330A3420AD96568236828469847002810
:103CCC00F2D0002DF0D00023AB60EDE770BD00BF4B
:103CDC00A480000038B505460F4C00E010340F4BA3
:103CEC009C4206D0A368002BF8D02368AB42F5D1D8
:103CFC0010E0094C00E01034084B9C4209D0A3683A
:103D0C00002BF8D02168284601F036FC0028F2D1AF
:103D1C0000E00024204638BD340000208400002040
:103D2C0008B50348034A121A002101F06AFC08BDC9
:103D3C00C00000203C2C002008B50648064A121A88
:103D4C00064901F03AFC064A0649074801F035FCE1
:103D5C0008BD00BF00000020BC000020088100004E
:103D6C0000000000088100000000002008B50B4B8B
:103D7C0001221A700220FFF791FF094A09490A48EB
:103D8C0001F01DF80320FFF789FFFCF71BFB074A26
:103D9C00137B23F00103137308BD00BF392C0020E3
:103DAC002C7D0000BC800000DC800000C0000020E6
:103DBC0008B5FDF7B1F9184B83F30888174C636904
:103DCC0043F400736361E02384F822300025E57727
:103DDC0025766576A576636A43F4E0236362FEF785
:103DEC00ABF8FDF76BFF4FF0FF33A362E36228469D
:103DFC00FFF754FF0120FFF751FF2A4629462846BA
:103E0C00FFF7B4FF4FF02002EFF3118382F3118818
:103E1C00BFF36F8FFEE700BF405C002000ED00E0B9
:103E2C0010B5064C0020064B9C4206D2204603F0EF
:103E3C0022FB002801DB1C34F5E710BD84000020B8
:103E4C00840000200A4B834208D04A680B68136038
:103E5C004A685A6000230B604B607047203B9B689C
:103E6C008B42F2D14B7B13F01F0FEED0F5E700BF66
:103E7C00242C002038B504460E4D05F1200003F02B
:103E8C0040FBAA68537B13F0200F02D043F00803C9
:103E9C00537348B15CB9537B13F01F0F07D183697F
:103EAC002BB9044BDA6104E0024BD868F2E7014B02
:103EBC00D86138BD042C002038B50546437B13F07F
:103ECC001F0F05D183690BB1002302E0012300E031
:103EDC0000230BB3154B53F8204F9C4224D064B1F4
:103EEC002146284603F0E2FAB8B934B10F4B5B6AAD
:103EFC009C4202D02468002CF1D10C4B03F120021F
:103F0C002A605A6A6A6015605D626B7B63F07F039E
:103F1C006B730020FFF7AEFF38BD63686B602C60DD
:103F2C0063681D606560F0E70024D8E7042C00206E
:103F3C0038B50446183003F06BFB00234FF0200219
:103F4C00EFF3118582F31188BFF36F8F10E0637B61
:103F5C0043F010036373154B9868A04214BF002004
:103F6C000120FFF787FF85F31188BFF36F8F0123C3
:103F7C0063B994F90D30002BE9DA21460C48FFF7B0
:103F8C0061FF637B03F07F036373E0E7074B9B6880
:103F9C00A34200D038BD4FF02003EFF3118083F320
:103FAC001188BFF36F8F03F09EFAF3E7042C002007
:103FBC00242C002070B50546036E03B1984705F11B
:103FCC00180003F025FB00234FF02002EFF31186BD
:103FDC0082F31188BFF36F8F1FE0012227E029467F
:103FEC002A48FFF72FFF6B7B03F07F036B7324E0F2
:103FFC0013F0020F29D0284603F054FA2946FFF794
:10400C0021FF6B7B23F002036B730023AB601CE07E
:10401C0086F31188BFF36F8F01231A46002B34D11E
:10402C006B7B13F01F0F02D1A9690029D5D012F0B8
:10403C00010FDDD013F0800FD1D1154B9868A84239
:10404C0014BF00200120FFF715FF6B7B43F0080322
:10405C006B7305F130032C6BA342D9D0002CD7D055
:10406C0004F1180003F0D4FA204603F01BFA2146A1
:10407C00FFF7E8FE637B23F0020363730023A36066
:10408C00A3672046FFF718FFE3E770BD242C002040
:10409C00042C002038B5B1F1FF3F08BFB0F1FF3F51
:1040AC001AD003F001FA0446C5176901430141EA2D
:1040BC00D062181A62EB05039A0042EA90728100F2
:1040CC001346081945EB0303DA0042EA5072C100AB
:1040DC00C80B40EA424038BD034B9868FFF728FFF5
:1040EC004FF0FF30F7E700BF042C0020014B98681D
:1040FC00704700BF042C002038B504464FF0200355
:10410C00EFF3118583F31188BFF36F8F03F016FA69
:10411C0040B10022826703F0FBF92946064803F000
:10412C00CFF938BDA368E268934203D0012213444F
:10413C00A360F2E70022FAE72C2C0020034B18684E
:10414C00984200D070470020FCE700BF2C000020F4
:10415C0030B1044A5268904201D000687047002088
:10416C00704700BF2C00002008B5044B1B680BB136
:10417C00002008BDFDF75CFCFBE700BF2C2C0020E9
:10418C00F8B54FF02003EFF3118583F31188BFF3DB
:10419C006F8F284B1860FFF7D1FF044650B3D0E95E
:1041AC000467244B1B68D917B94208BFB34221D30B
:1041BC00214AD2E90001801941EBE671C2E9000104
:1041CC009B1B1C4A136000220023C4E904232046D5
:1041DC0003F0F9F985F31188BFF36F8FA3682046BC
:1041EC0098474FF02003EFF3118583F31188BFF349
:1041FC006F8FD0E744B10F4B1968D4E90423521ADE
:10420C0063EBE173C4E904230B480A490C68D0E959
:10421C000023121943EBE473C0E9002300240C6063
:10422C0003F0E9F92146FDF7D5FB85F31188BFF3BF
:10423C006F8FF8BD2C2C00204001002010B5064CCF
:10424C00064B9C4206D2A2686168204603F0FEF938
:10425C001434F5E7002010BD8400002084000020F9
:10426C0070B582B0044601A90079FCF739F9A5684C
:10427C00019B1D4423681C892E194FF02002EFF37B
:10428C00118382F31188BFF36F8F01F0EDF8FCF707
:10429C007DFE2B5983F30888002383F314887368FD
:1042AC00984702B070BD012907D0022907D011B17F
:1042BC006FF01500704701207047022070470320F3
:1042CC007047FF20704770B516461D4600F061FF21
:1042DC0050B90021A94205D2745CFF2C06D10131E2
:1042EC00C9B2F7E7012001E04FF0FF3070BD2DE9B6
:1042FC00F0439DB015469946249FDDF89480279C89
:10430C0001A802F0A3FF002101A8FFF7A1F814B146
:10431C00289B002B06DC2B89EE6833446E891E44E7
:10432C00002513E01A46214601A802F095FFF2E79A
:10433C0023463A462946484600F02BFF034688B9E7
:10434C002246394601A802F087FF2544B54204D223
:10435C00741B4445ECD94446EAE7269901A802F0BF
:10436C00BEFF002318461DB0BDE8F0832DE9F043D5
:10437C0083B000284AD00C461746994606460029B9
:10438C0047D0002A48D00D89CB681D4404230DEB7F
:10439C0003022946384600F0FCFE804600283ED138
:1043AC00BDF8042046F608139A421ED06389002BF0
:1043BC003BD1BDF8042046F607139A4238D134603D
:1043CC007760A6F808909DF82830B37263892B4467
:1043DC00F36063892B44BDF80620134473610435E4
:1043EC003561404603B0BDE8F0836389BDF8061023
:1043FC008B4217D104230DEB03022944384600F0FD
:10440C00C8FE0028D5D04FF0FF38EAE74FF0FF3850
:10441C00E7E74FF0FF38E4E74FF0FF38E1E74FF004
:10442C00FF38DEE74FF0FF38DBE74FF0FF38D8E717
:10443C004FF0FF38D5E700284DD0F0B583B00F46CC
:10444C0016461D4604460368002B48D043680BBB38
:10445C004FF0FF313AE004230DEB03022169606851
:10446C0000F097FE014600283CD1A37A1BB12269CB
:10447C00E3689A4239D223894FF6FF72934217D0E0
:10448C00BDF80420934213D0BDF8060023691844EC
:10449C00043020612069636998421AD223685B89D1
:1044AC00002BD8D0E3688342D5D104302061D2E709
:1044BC0015B1BDF804302B80236904333B60BDF883
:1044CC00063033802269134404332361084603B059
:1044DC00F0BD0121FAE74FF0FF31084670474FF06D
:1044EC00FF31F3E74FF0FF31F0E70121EEE72DE963
:1044FC00F04184B004460E461546302303AA2946E3
:10450C00304601F055FBA8BB3368039A1344AB4209
:10451C0033D104F108073A462946304601F05BFBDB
:10452C0028BB04F1140842462946304601F053FBDF
:10453C00E8B9384601F057FE60603368AB421FD1D2
:10454C00CDF804800022009213463946204602F032
:10455C00F8FDC0B92046FEF70FFF0546B0B9384646
:10456C0001F041FE6060284604B0BDE8F0816FF0B8
:10457C000205F8E74FF0FF35F5E76FF00105F2E7BC
:10458C006FF00305EFE76FF00405ECE76FF005053E
:10459C00E9E7F0B5A5B006460F4600230893DF24E3
:1045AC0007E025462A466946304601F006F82E44B7
:1045BC00641B002C1DDD09A802F048FE002109A88F
:1045CC00FEF746FF2022394609A802F045FE0422D8
:1045DC0008A909A802F040FE694609A802F07FFE6E
:1045EC009DF8233001338DF823301F2CD9DD202585
:1045FC00D8E725B0F0BD012800D170470220FCE7B8
:10460C0004280AD0052803D1481E18BF0120704782
:10461C00884214BF00200120704701207047806839
:10462C002838704730B587B005460C468168102392
:10463C0002AA1039FFF747FE00284ADB01283CD1BB
:10464C00032323702846FFF7EAFF014601230DF1EF
:10465C0007022846FFF737FE00283DDB9DF80730A0
:10466C0003F00F0262701B092371012801D0042A88
:10467C0003D90123637000232371A9680123A21CB1
:10468C0020392846FFF71FFE002827DB012819D008
:10469C00A078FFF7B0FFA070A9680123E21C1839BD
:1046AC002846FFF710FE00281ADB01280DD0E07811
:1046BC00FFF7A1FFE07000200CE002A8FCF7CAF89D
:1046CC002070BFE70323A370E6E70323E370002009
:1046DC0000E0012007B030BD0120FBE70120F9E725
:1046EC000120F7E710B582B00C4601A9C0B2FDF766
:1046FC0009F818B10124204602B010BD21460198DA
:10470C00FFF790FF0446019800F042FDF3E70A78AA
:10471C0003789A420BD80CD34A7843789A420AD839
:10472C000BD34A8843889A4209D300207047002053
:10473C0070470820704700207047082070470820F9
:10474C00704708B5006A00F0A1FD08BD2DE9F041E5
:10475C0082B006460C4617460020FFF7A4FD01A9BF
:10476C00C0B2FCF7CFFF40B14FF00108019800F048
:10477C000FFD404602B0BDE8F0812C2303FB04631F
:10478C001D89DB681D4404236A462946019800F004
:10479C0000FD804640BB2C2101FB04646489BDF8FC
:1047AC00002046F608139A420CD004BBBDF800203A
:1047BC0046F607139A421DD12544BDF802301D441C
:1047CC003D60D3E7BDF802108C4202D04FF00308D5
:1047DC00CCE704236A462944019800F0DAFC00284F
:1047EC00E4D04FF00108C1E74FF00108BEE74FF0ED
:1047FC000308BBE74FF00308B8E7F0B583B00746F2
:10480C000C460020FFF74FFD01A9C0B2FCF77AFF60
:10481C00D0B906460198FFF754FD0546019800F003
:10482C00B7FC2C2101FB04710023032B05D8CA5CB7
:10483C00954207D10133DBB2F7E701233BB1304698
:10484C0003B0F0BD0023F9E74FF0FF36F7E74FF068
:10485C00FF36F4E710B582B0034608468022019279
:10486C00012905D002290ED11A6D03F1540402E07E
:10487C005A6A03F1280401A9FCF758FF08B9019BF7
:10488C00236002B010BD0120FBE738B504460121BE
:10489C00FFF7E0FF10B10125284638BD0221204664
:1048AC00FFF7D8FF054608B10125F5E72046FFF7CD
:1048BC0048FFE065F0E7F8B505460F4616460024BC
:1048CC00012C10DC33462C2202FB045221462846D4
:1048DC0000F04BF8034608B90134F1E7002C03DD76
:1048EC0017B9002300E000231846F8BD70B5054643
:1048FC000E460020FBF7BAFF0446022805D0042818
:10490C0003D0032801D0204670BD32460121284631
:10491C00FCF772F8012803D00028F4D00524F2E744
:10492C000446F0E7002383718360C3600123437165
:10493C0003600371C37170474379012B01D00020D0
:10494C0070470368012B01D0002070470379012BBD
:10495C0001D0002070470120704708B500F068FCBA
:10496C0008BD08B5FCF76EF908BD10B582B0144649
:10497C000020FFF798FC01A9C0B2FCF7C3FE30B1D0
:10498C000124019800F004FC204602B010BD202345
:10499C0022460021019800F0FCFB04460028F0D0D0
:1049AC000124EEE70020704738B504460D4645203B
:1049BC00A04729465220A04729465220A04738BD7F
:1049CC002DE9F04F83B081468A4690461D469DF8EE
:1049DC003030019300264FF0100B3746402407E08F
:1049EC0009282AD9572351461844C84701360127AC
:1049FC00032C33DD043CC4F12002A4F1200328FA7B
:104A0C0004F005FA02F2104325FA03F3184310F0F0
:104A1C000F00E5D1002FE3D1002CE1D00BF1FF33D7
:104A2C0000930D9B9B4516DC019B012B07D0019B32
:104A3C00022B0AD0DDF800B0DAE73023D3E7514679
:104A4C003020C847DDF800B0D2E751462020C847D7
:104A5C00DDF800B0CCE7DDF800B0C9E7019B032B13
:104A6C0002D003B0BDE8F08F0D9BC6EB430603E00C
:104A7C0051462020C8472646741E002EF8DCF0E76D
:104A8C002DE9F04F87B007460E46144605934FF0BC
:104A9C0000084FF0FF39C246454602E03146B847A0
:104AAC0001342078002800F0878145B92528F5D1FC
:104ABC004FF000084FF0FF39C2460125F0E70246DF
:104ACC00A0F12503552B00F26981DFE813F0620198
:104ADC0067016701670167016701670167016F0182
:104AEC006701670156005D005D005D005D005D00C3
:104AFC005D005D005D005D00670167016701670196
:104B0C006701670167016701670167016701670159
:104B1C006701670167016701670167016701670149
:104B2C006701670167016701670167016701670139
:104B3C00670167010C016701670167016701670184
:104B4C00670167016701670167015A018A00670104
:104B5C006701670170008A006701670170006701D7
:104B6C00670167010201670167013A016701CF0024
:104B7C00670167010C0167017000B9F1000F03DADE
:104B8C00BAF1000F00F01581B9F1000F0CDB09EB45
:104B9C00890902EB4909A9F13009BAF1000F7FF438
:104BAC007FAF4FF0020A7BE7A2F13009F5E76828E6
:104BBC000CD06C2810D0B8F1000F0BD0314625204A
:104BCC00B84731462078B847002569E7B8F1680F37
:104BDC00EFD14820804663E7B8F16C0FEBD14C2045
:104BEC00F8E7B8F17A0F0AD0B8F16C0F17D0B8F11A
:104BFC004C0F19D0059B1A1D05921D6803E0059BEF
:104C0C001A1D05921D68002D29DBCDF80090534626
:104C1C002A4631463846FCF7E3F9002540E7059B68
:104C2C001A1D05921D68EEE7059B073323F0070359
:104C3C0003F1080205921D685B6815F100420292AF
:104C4C0043F100030393DDE90223012B08BF002A83
:104C5C00D9D331463846FFF7A7FE002520E7314669
:104C6C002D20B8476D4209F1FF39CEE7B8F17A0F24
:104C7C000AD0B8F16C0F14D0B8F14C0F16D0059BBC
:104C8C001A1D05921A6803E0059B1A1D05921A68F5
:104C9C00CDF80090534631463846FCF7A1F9002573
:104CAC00FEE6059B1A1D05921A68F1E7059B073372
:104CBC0023F0070303F108020592D3E90023012B2B
:104CCC0008BF002AE4D331463846FFF76DFE0025B5
:104CDC00E6E631463020B84731467820B8474FF0E9
:104CEC0008094FF0010A2378702B0BD0B8F16C0F28
:104CFC0017D0B8F14C0F1AD0059B1A1D05921A68E3
:104D0C00002304E0059B1A1D05921A680023CDF8B8
:104D1C000490CDF800A031463846FFF751FE00252F
:104D2C00BEE6059B1A1D05921A680023EFE7059B4A
:104D3C00073323F0070303F1080205921A685B6836
:104D4C00E5E7059B1A1D0592D3F800B05D4602E01D
:104D5C0001353146B84728780028F9D1BAF1030F4C
:104D6C0001D000259CE6A5EB0B03A9EB030303E0A4
:104D7C0031462020B8472B465D1E002BF8DC002561
:104D8C008EE6059B1A1D059231461868B84700251A
:104D9C0086E631462520B847002581E63146252098
:104DAC00B84731462078B847002579E64FF0030A1A
:104DBC0076E64FF0010A73E607B0BDE8F08F0FB44A
:104DCC0000B583B004A951F8040B0191FCF762F90A
:104DDC0003B05DF804EB04B0704770B400EBC10491
:104DEC008268B2F5004F26D363685B08B2F5004FBA
:104DFC0023D308250835A3EBD5030133B3FA83F38A
:104E0C00C3F11F05C3F1230350F82330DBB9012391
:104E1C0003FA05F6C3683343C360043540F8251024
:104E2C00B2F5004F0BD3A1608368B3F5004F08D3E4
:104E3C00E16070BC70476388D7E70425DAE7A1808E
:104E4C00F2E7E180F5E700EBC306B2F5004F16D3AD
:104E5C00B568B2F5004F14D3A5608268B2F5004F67
:104E6C0011D3E36000EBC5058368B3F5004F0CD399
:104E7C00E9608368B3F5004F09D3B160D9E7B58811
:104E8C00E7E7A580E9E7E380ECE7E980F1E7B180AB
:104E9C00CFE7F8B50346B2F5802F2ED30825551B66
:104EAC00C81D20F007000D4425F007052D1AEF084A
:104EBC000646186000220023C0E900238760002307
:104ECC00C360B7F5004F1AD308230833A7EBD303FD
:104EDC000133B3FA83F3C3F1200CC3F124039B0019
:104EEC0003F1070E4FEADE010023634509DA1A1DB0
:104EFC00002446F822400133F7E70425CFE70423CA
:104F0C00E3E74B00B7F5004F2ED34360B7F5004FE6
:104F1C002CD3436843F0010343607A1A56002EF0F9
:104F2C000703C418B7F5004F25D366608468B4F541
:104F3C00004F22D3C15025F0070305448468B4F513
:104F4C00004F1CD300246C608468B4F5004F19D357
:104F5C00C2508368B3F5004F16D36B6843F001035E
:104F6C006B60FFF73AFFF8BD4380CFE7438843F00F
:104F7C0001034380D1E76680D8E7C152DBE7002408
:104F8C006C80E1E7C252E4E76B8843F001036B806D
:104F9C00E7E770470020704708B5FCF75FFD08BDD8
:104FAC000EB400B582B003AA52F8041B0192002380
:104FBC00FCF780F802B05DF804EB03B0704708B55D
:104FCC00FCF7E6F8002008BD00B583B001900B6833
:104FDC004A685268012101A89847002003B05DF887
:104FEC0004FBF8B507460D4614461E4632462146CC
:104FFC002846B8470544241AF8D1F8BD0022037896
:10500C0013B101301A46FAE70A2A14BF0020012016
:10501C00704708B513460122FCF76EF908BD08B5B8
:10502C0013460022FCF768F908BD38B505460C4656
:10503C0001F00101FFF7F3FF21462846FCF772F956
:10504C0038BD2DE9F04383B0044615469DF8286021
:10505C0001F00109C1F3C00811F0020713D1324667
:10506C0049462046FFF7D5FF0196BDF83030009336
:10507C009DF82C302A4641462046FCF7C5F93844A9
:10508C0003B0BDE8F0831A46FCF7F0F80746E6E7F4
:10509C0010B5044642685368126881680068FFF7CF
:1050AC00A0FF636800221A6010BDF8B507460E46D3
:1050BC0015460024B44206D2395DAB685B682846BD
:1050CC0098470134F6E73046F8BD00684B689842C3
:1050DC000BD310B48C682344984209D208694B69ED
:1050EC00984209D2002010BC704701201070704704
:1050FC00002313700120F6E76FF00B038B61002384
:10510C0013700120EFE770B582B005460C46CE68EF
:10511C000DF10702FFF7D9FF80B92B68616822698E
:10512C005B1A46F83230236906EBC3066B68736072
:10513C00236901332361012002B070BD9DF8070083
:10514C00FAE7F8B50D4617461E46069C2060FCF79C
:10515C00C1FAB8B1436863608368A360E76000225A
:10516C0022612B686361A261C068FEF7B3FD60B178
:10517C002246314600F043FCA3690BB923692B602E
:10518C00A069F8BD6FF01500FBE76FF01200F8E7AF
:10519C007047F8B504460D4617461E4683688B4289
:1051AC0004D3721893420ED2002300E0002363B1A3
:1051BC00E068FEF78FFD6168294483681C683346FC
:1051CC003A46A047F8BD0123F1E76FF01500F9E767
:1051DC002DE9F84305460E4691461F4683688B42DF
:1051EC0004D37A1893421ED2002300E00023E3B1CB
:1051FC00E868FEF76FFD04468368DB68002198477A
:10520C00804668B969683144A3685D683B464A4684
:10521C002046A8478046A368DB68012120469847B2
:10522C004046BDE8F8830123E1E76FF01508F7E786
:10523C002DE9F04105460E46174683688B4204D390
:10524C000A4493421DD2002300E00023DBB1E8683E
:10525C00FEF740FD04468368DB68002198478046D2
:10526C0060B969683144A3689B683A462046984700
:10527C008046A368DB680121204698474046BDE87C
:10528C00F0810123E2E76FF01508F7E708B5C06875
:10529C00FEF720FD83681B699847007808BD00F174
:1052AC0080431A683AB14FF08042D2F8042311427D
:1052BC000CD0012200E0002210464AB182B000223C
:1052CC001A601B680193019B02B070470022F3E740
:1052DC0070474FF080430322C3F8082370474FF008
:1052EC0080430322C3F804237047C06801EB4101DB
:1052FC0000EB81007047406800EBC100704708B5B7
:10530C00C9B2FFF7F2FF437A1BB9037A1BB901202C
:10531C0008BD0220FCE70020FAE770B50646CCB2C7
:10532C002146FFF7E8FF054621463046FFF7DDFF33
:10533C004FF02003EFF3118283F31188BFF36F8FCB
:10534C00037A8BB1013BDBB2037283B90360436018
:10535C00E97801F1804101240C604372184682F314
:10536C001188BFF36F8F70BD6FF04400F7E700201A
:10537C00F5E703688B4205D033B11B68002BF9D1DC
:10538C000020704701207047002070474FF0200329
:10539C00EFF3118283F31188BFF36F8F00230B603F
:1053AC00436833B11960416082F31188BFF36F8F8A
:1053BC00704741600160F7E703464FF02001EFF3BF
:1053CC00118281F31188BFF36F8F006868B110B43C
:1053DC00016819605C68A04205D082F31188BFF3A4
:1053EC006F8F10BC70475960F7E782F31188BFF3D9
:1053FC006F8F7047F8B507460E46FFF776FF0546E8
:10540C00012343722846FFF7D7FF034628B15C6897
:10541C009A6831463846A047F4E7F8BD08B5002233
:10542C00FCF7E0F908BD38B505460022012110460D
:10543C00FCF72EFC0020FCF71BFC4FF080430122F4
:10544C00C3F81825FFF74BFF002408E02146284637
:10545C00FFF74BFF0023036043600134E4B2012CDF
:10546C00F4D9002038BD70477047401A20F07F40B7
:10547C00704710B504460230FCF710FAFCF740FAFE
:10548C00A04206D0FCF73CFA04460230FCF706FAC0
:10549C00F4E710BD38B50446FCF732FA0546014670
:1054AC002046FFF7E2FF01280DD02046FCF7F6F965
:1054BC00FCF726FA05460146A01EFFF7D6FFB0F50D
:1054CC00000F04D238BD2846FFF7D3FFFAE7284671
:1054DC00FFF7CFFFF6E710B50446FCF701FAFCF72F
:1054EC0027FA2046FFF7D6FFFCF702FA10BD08B5E5
:1054FC00FCF7CCFA08BD08B5FFF7F9FF002008BD92
:10550C0008B50021012000F001F808BD08B501F034
:10551C0098FF08BD08B501460068FFF7F7FF08BD06
:10552C0008B5FCF7D1FBFCF70FFD08BD0020704758
:10553C0008B500231370CB1E032B12D8DFE803F041
:10554C0002060A0E1146FCF77BFC08BD0021FCF795
:10555C0017FCFAE70021FCF737FCF6E7FCF75EFCDA
:10556C00F3E70020F1E702460B781BB102F8013B90
:10557C000131F9E71370704703780A78934203D12D
:10558C0013B101300131F7E7981A70477AB1531E05
:10559C000FD010B404780A78944203D10130013151
:1055AC00013BF7D100780B78C01A10BC7047002073
:1055BC00704700780B78C01A704710B480EA01036A
:1055CC0013F0030F01D0034617E0034613F0030F4B
:1055DC000BD0A2B111F8014B03F8014B013AF5E7DE
:1055EC0051F8044B43F8044B043A032AF8D804E06E
:1055FC0011F8014B03F8014B013A002AF8D110BC09
:10560C00704710B4CCB2034613F0030F04D09AB118
:10561C0003F8014B013AF7E7C9B241EA012141EA2B
:10562C000141032A06D943F8041B043AF9E703F8AD
:10563C00014B013A002AFAD110BC70474FF0FF30F1
:10564C00704708B5FDF7F6FA08BD43685B68D3F8F8
:10565C0010350B600020704743685B68D3F8040575
:10566C0042400A404240C3F804250020704743687A
:10567C005B68C3F808150020704743685B68C3F883
:10568C000C150020704743685A68D2F804354B401B
:10569C00C2F804350020704770B4C068051D43681B
:1056AC00DBB10E4600240AE00B6843606C68A14233
:1056BC000FD16B600DE06C600BE01C461B685BB19E
:1056CC009E42FAD1002CEFD00B6823606B68994294
:1056DC00F1D000230B6000E052B162B143680B6063
:1056EC0041606B680BB1002006E06960002003E0AC
:1056FC006FF0150000E0002070BC7047F0B4C66875
:10570C004768F1687269B369134321EA0301012305
:10571C00002011E04FF0020C4FF0A04502F5E072B2
:10572C0055F8224024F4403444EA0C4445F8224015
:10573C0021EA030101305B0071B10B42FAD03C7AD3
:10574C0000F01F0242EA44123469C44014F0010F05
:10575C00E0D14FF0030CDFE7F0BC7047F0B4C36846
:10576C004768DA6859699869014322EA0102796845
:10577C00D1F810151869484022EA000001230024D2
:10578C0001E001345B009AB11A42FAD03D7A04F080
:10579C001F0141EA45114FF0A04601F5E07156F8A2
:1057AC00215025F4403546F8215022EA0302E8E75F
:1057BC00F0BC704770B5C46845682E7A01F01F05BF
:1057CC0045EA4615B2F5A03F25D0B2F5005F2ED0C4
:1057DC00E56801268E403543E560B2F5A03F2CD03C
:1057EC00626901258D4022EA05026261B3F5C02F82
:1057FC0028D0A26901258D4022EA0502A261B3F5E9
:10580C00802F24D0236901228A4023EA02032361DA
:10581C00FCF7D4FD70BD05F5E0754FF0A04656F8C9
:10582C00255015F0010FD0D06FF02200F2E7E5689B
:10583C0001268E4025EA0605CEE7626901258D40DA
:10584C002A43D2E7A26901258D402A43D6E7236972
:10585C0001228A401343DAE7002070474B68034467
:10586C004B600B6803440B608B68181A8860704798
:10587C0038B5044600F02CF905466068FDF70EFBC0
:10588C00A3685B1BA36062682A446260002BF4D19E
:10589C00002038BD00B585B0002301930290039120
:1058AC0001A8FFF7E5FF05B05DF804FB70B50C46E9
:1058BC00154600F00DF9064600F006F9A04219D97C
:1058CC00002C1ADB85421BD82B1998421BD3B4FB36
:1058DC00F6F306FB1343CBB9B5FBF6F306FB1353F8
:1058EC00BBB9AE4201D9002006E029462046FFF79D
:1058FC00D1FF01E06FF0150070BD6FF01500FBE7F4
:10590C006FF01500F8E76FF01500F5E76FF0150074
:10591C00F2E76FF01500EFE710B50446A368032B10
:10592C0009D923681968606800F0C2F82146042080
:10593C00FFF794FFF2E7FCF793FD002010BD00B5D4
:10594C0085B001910290039201A8FFF7E5FF05B025
:10595C005DF804FB70B50C4616461D4600F0B4F815
:10596C00844215D2002C16DB854217D82B1998428D
:10597C0017D314F0030F17D115F0030F17D10DB96E
:10598C00002007E02A4631462046FFF7D8FF01E009
:10599C006FF0150070BD6FF01500FBE76FF0150090
:1059AC00F8E76FF01500F5E76FF01500F2E76FF010
:1059BC001500EFE770B50C4616461D4600F084F84E
:1059CC00A04210D9002C11DB854212D82B19984219
:1059DC0012D30DB9002008E02A4621463046FFF7C5
:1059EC00ECFD002001E06FF0150070BD6FF01500AC
:1059FC00FBE76FF01500F8E76FF01500F5E72DE900
:105A0C00F04786B08946904683685B6901AA05A970
:105A1C00984700242646A246019B534516D9059F5C
:105A2C0007EBCA077B68039300253B68AB420AD996
:105A3C0002940496414602A8C84738B1039B1C4403
:105A4C0001360135F1E70AF1010AE5E706B0BDE8D8
:105A5C00F0870B46C26892E8030083E8030000203D
:105A6C00704708B5FCF71EFD08BD0120704708B54E
:105A7C0001F0A5FD08BD4FF08053186970474FF039
:105A8C0080535869704710B5FFF7F5FF0446FFF7D0
:105A9C00F6FF00FB04F010BD10B50446FFF7EBFF5A
:105AAC00B4FBF0F300FB1340B0FA80F0400910BDDA
:105ABC0038B504460D46FDF7D5F929462046FDF7C5
:105ACC00E1F9FDF7C7F938BD08B5FFF7DCFF08BDF4
