:020000040000FA
:10000000C8540020E1220000FF610000112300001D
:100010001123000011230000112300000000000044
:10002000000000000000000000000000F5210000BA
:100030001123000000000000AD2100004561000018
:10004000B9220000B9220000B9220000B922000044
:10005000B9220000B9220000B9220000B922000034
:10006000B9220000B9220000B9220000B922000024
:10007000B9220000B9220000B9220000B922000014
:10008000B9220000B9220000B9220000B922000004
:10009000B9220000B9220000B9220000B9220000F4
:1000A000B9220000B9220000B9220000B9220000E4
:1000B000B9220000B9220000B9220000B9220000D4
:1000C000B9220000B9220000B9220000B9220000C4
:1000D000B9220000B9220000B9220000B9220000B4
:1000E000B9220000B9220000B9220000B9220000A4
:1000F000B9220000B9220000B9220000B922000094
:1001000053B94AB9002908BF00281CBF4FF0FF317E
:100110004FF0FF3000F06CB9ADF1080C6DE904CE82
:1001200000F006F8DDF804E0DDE9022304B07047D2
:100130002DE9F047089E0D4604468E46002B40F000
:1001400082808A42174646D9B2FA82F24AB1C2F197
:10015000200105FA02F320FA01F1974041EA030E6B
:1001600094404FEA1748230CBEFBF8FCB9B208FBD9
:100170001CEE43EA0E430CFB01F098420AD9FB182F
:100180000CF1FF3580F01681984240F21381ACF1FA
:10019000020C3B441B1AA4B2B3FBF8F008FB10336B
:1001A00044EA034400FB01F1A14209D93C1900F1E2
:1001B000FF3380F00181A14240F2FE8002383C44CE
:1001C000641A40EA0C4000211EB1D4400023C6E965
:1001D0000043BDE8F08702B9FFDEB2FA82F2002ADE
:1001E0004FD1CB1B4FEA174E1FFA87F80121B3FB03
:1001F000FEFC250C0EFB1C3345EA034508FB0CF303
:10020000AB4207D97D190CF1FF3002D2AB4200F2AC
:10021000E7808446ED1AA3B2B5FBFEF00EFB105545
:1002200043EA054408FB00F8A04507D93C1900F152
:10023000FF3302D2A04500F2D7801846A4EB080491
:1002400040EA0C40C0E78B4208D9002E00F0AF8096
:100250000021C6E900050846BDE8F087B3FA83F13E
:1002600000294BD1AB4202D3824200F2B780841AFC
:1002700065EB030301209E46002EAAD0C6E9004E7E
:10028000A7E7C2F1200C01FA02F3974020FA0CF024
:100290004FEA174E21FA0CFC1843BCFBFEF1050C8B
:1002A0000EFB11CC1FFA87F845EA0C4501FB08F359
:1002B000AB4204FA02F409D97D1901F1FF3C80F048
:1002C0008B80AB4240F2888002393D44EB1A85B204
:1002D000B3FBFEF00EFB103345EA034500FB08F3C9
:1002E000AB4207D97D1900F1FF3C71D2AB426FD907
:1002F00002383D44EB1A40EA014178E7C1F1200C95
:100300008B4022FA0CF71F4320FA0CF405FA01F394
:100310004FEA174E25FA0CF51C43230CB5FBFEF9EA
:100320001FFA87F80EFB195543EA054509FB08FA41
:10033000AA4502FA01F200FA01F308D97D1909F180
:10034000FF3047D2AA4545D9A9F102093D44A5EBA2
:100350000A05A4B2B5FBFEF00EFB105544EA0544B5
:1003600000FB08F8A04507D93C1900F1FF352DD254
:10037000A0452BD902383C4440EA0940A4EB0804CC
:10038000A0FB02894C45C6464D4619D316D05EB136
:10039000B3EB0E0264EB050404FA0CFCCA404CEA11
:1003A0000202CC40C6E900240021BDE8F0873146B6
:1003B00030460EE7AC46EDE6184601E74345E6D287
:1003C000B8EB020E69EB07050138E0E72846D3E7F2
:1003D00060468FE78146BAE7614677E708464BE714
:1003E000ACF1020C3D4415E702383C4426E700BF5F
:1003F000704700BF30B585B04FF00000032363F3B2
:1004000002006FF3C500324B324A9B1AC3F3C90393
:1004100063F38F10304905F0E7FB00F09BF82F489D
:1004200000F068F8A8B101A800F0ACFD10B34FF0DF
:100430000000012363F302006FF3C500244B254A3B
:100440009B1AC3F3C90363F38F10254905F0CCFB56
:10045000FEE7012363F302006FF3C5001C4B1D4A46
:100460009B1AC3F3C90363F38F101C4A1D4905F09F
:10047000BBFBFEE703254FF0000065F302006FF3BE
:10048000C500134C134BE41AC4F3C90464F38F1072
:10049000039A154905F0A8FB4FF0000065F3020030
:1004A0006FF3C50064F38F10104905F09DFB01A8A0
:1004B00004F062FB4FF00000012363F302006FF3CE
:1004C000C50064F38F100A4905F08EFBFEE700BFFC
:1004D0001887000010870000788700008C870000D4
:1004E000BC870000A0870000DC87000008880000AF
:1004F0002888000008B5054B1B6813B1034B18682A
:1005000008BD04F073F8014B1860F7E79001002074
:1005100010B900200860704708B502464FF000008F
:10052000012363F302006FF3C500074B07495B1A11
:10053000C3F3C90363F38F100023054905F054FB8F
:100540006FF0150008BD00BF18870000108700007D
:100550004888000008B54FF4C051024803F0D6FAAD
:1005600008BD00BF9401002070B5A4B0202928D890
:1005700006460D460024144B1B68A3421CDD09A847
:1005800007F0BDFD002109A803F0EEFB0F4B03EBC4
:10059000C4025268126853F8341009A807F0B5FD78
:1005A00001A909A807F0F4FD2A46314601A805F083
:1005B0005CFE18B10134DEE74FF0FF34204624B072
:1005C00070BD4FF0FF34F9E76C88000070880000C0
:1005D0002DE9F041D6B014461D465F9E04965E9EFE
:1005E000039606AE02965D9E01965C9E009604F010
:1005F00006FB0646002840F08280609B23B1202243
:1006000006A9184605F048FE002300934FF6FF7335
:100610002A4621464EA804F031FB064600286ED13A
:10062000074680464FF0FF341DE04FF0FF341AE0DC
:100630004FF0FF3417E04FF0FF34012713E0BDF80F
:100640005231202B5FD10EAA5599284605F0C5FBE3
:1006500000285BD120220EA906A805F006FE00287E
:1006600056D14FF0010854AB0DF5A97255A94EA80B
:1006700004F069FB002840DB38DCBDF85021102A6B
:10068000DDD0012A21D0202AEDD1002CCDDB294B51
:100690001B68A342CCDDBDF85231B3F5807F3FD15A
:1006A0000EAA5599284605F098FB00283BD1E4B2E4
:1006B0000094BDF852310EAA202106A800F0AEF831
:1006C0000028B8D04FF0FF34CDE7BDF85231202BD1
:1006D00021D80EAA5599284605F07FFBF0B99DF860
:1006E00052110EA8FFF740FF0446BCE7B8F1000F17
:1006F0001CD027B94FF0FF3601E04FF0FF363046EF
:1007000056B0BDE8F0814FF0FF36F8E70646F6E751
:100710004FF0FF36F3E74FF0FF36F0E70646EEE71F
:100720004FF0FF36EBE74FF0FF36E8E74FF0FF36CC
:10073000E5E700BF6C88000070B5ADF51C7D0E4686
:1007400019464368B3F5807F51D1202A52D141AA7E
:1007500003F0C8FA054600284FD19DF80332BC2BA0
:100760004ED10DF2E31109A804F09BFB2B46DE2BC2
:1007700007DC41AAD25C09A8C45C6240C2540133C0
:10078000F5E79DF8243003F07F038DF82430BD2D6C
:1007900004DC09AB5B5DB3BB0135F8E79DF8E230E3
:1007A000012B35D181A807F0AAFC002181A803F014
:1007B000DBFA0822184981A807F0A7FC202231465D
:1007C00081A807F0A2FC20220DF1E30181A807F027
:1007D0009CFC01A981A807F0DBFC20220DF2E311AB
:1007E00001A805F042FD80B14FF0FF300DE04FF061
:1007F000FF300AE04FF0FF3007E04FF0FF3004E039
:100800004FF0FF3001E04FF0FF300DF51C7D70BD63
:100810004FF0FF30F9E700BF788800002DE9F04382
:10082000ADB006460F4690461D469DF8D09000227A
:10083000114601A807F01DFC114C54F83930009303
:1008400004EBC904626812681A44694601A804F0FE
:10085000D6FA044610B9029BAB4206D001A807F0B5
:1008600016FC20462DB0BDE8F08343463A4631469B
:1008700001A8FFF761FF044601A807F008FCF0E7B4
:100880007088000008B51022034905F0EEFC08B19D
:10089000022008BD0120FCE7CC88000070B586B0BE
:1008A0000D460123ADF80430002407E0286805F068
:1008B00093FA23E0286805F08FFA0134012C1BD845
:1008C000294606AB234413F8140C01F049FA0646F6
:1008D000A0B928688168102302AA103905F07DFAB2
:1008E00006460028E2D11022064902A805F0BDFC08
:1008F00006460028DED101E04FF0FF36304606B054
:1009000070BD00BFCC88000008B581681023044A80
:10091000103905F081FA00B908BD0120FCE700BFDD
:10092000CC88000030B585B002A9012004F0BBFBE3
:1009300000286ED16946022004F0B5FB00286AD178
:10094000002407E02B79042B29D09DF80A2093423C
:1009500025D00134022C48D804EB44032F4A02EB83
:1009600043059DF8081012F8130004F00DFB002851
:10097000EFD09DF80010687804F006FB0028E8D05E
:10098000AB78042B03D09DF80B209342E1D1EB7898
:10099000042BD7D09DF803209342DAD1D2E74FF051
:1009A0000000032363F302006FF3C5001C4B1D4AD4
:1009B0009B1AC3F3C90363F38F106B79022B07D023
:1009C000032B10D0042B01D0174A02E0174A00E095
:1009D000174A184905F008F96879831EDBB2022B23
:1009E00015D9FF2013E0144AF3E74FF0000003236A
:1009F00063F302006FF3C500094B0A4A9B1AC3F365
:100A0000C90363F38F100D4905F0EEF8012005B01E
:100A100030BDFF20FBE7FF20F9E700BFDC880000C6
:100A2000188700001087000090880000A48800004C
:100A300080880000AC88000088880000BC88000026
:100A400002680E4B9A420DD1C2680389D843824294
:100A50000CD810B4D418012010B18B68A34203D96C
:100A600010BC7047002070470020F9E7002010B14B
:100A70008B68A34200D97047002070473DB8F396B9
:100A800000B587B0134600200490039002904FF405
:100A900080720192054A00920A460146FFF798FDCE
:100AA00010B907B05DF804FB0320FAE7F425002035
:100AB0002DE9F04182B006460C461546002004F0B0
:100AC0007EF801A9C0B201F04BF928B14FF0FF3513
:100AD000284602B0BDE8F0812C2000FB04672146C7
:100AE000304604F09CFB88B33B6913F0100F32D101
:100AF000DDF8048041463846FFF7A2FFA8B9ECB9FB
:100B00004FF00000012363F302006FF3C500134BA5
:100B1000134A9B1AC3F3C90363F38F10A4B9114A94
:100B2000114905F061F8012511E02B46424639468E
:100B30003046FFF7A5FF054648B1E0E70198826817
:100B4000002105F099F9DBE7084AE9E7012501985A
:100B500005F042F9BCE70125F9E700BF188700005E
:100B600010870000FC88000004890000F088000065
:100B700030B583B005460C46002300930193084628
:100B800004F0ECFB30B32A681F4B9A4216D0EA6A95
:100B90001D4B9A4218D0019B009A934200D90093B2
:100BA000009BA360009A2146284600F093FC174B57
:100BB0001A68002A16DC002003B030BD6A46002106
:100BC000284604F0D5FAE2E701AA0121284604F0FC
:100BD000CFFAE0E704F10801002004F079FAA368F5
:100BE0000093DFE74FF00000022363F302006FF38E
:100BF000C500074B07495B1AC3F3C90363F38F10A2
:100C0000054904F0F1FFD6E73DB8F396F42600203D
:100C100018870000108700002889000038B50446B6
:100C20000D46FFF7A5FF0246EB7984F85830033BE9
:100C3000DBB2012B0CD9EB79022B13D0042B11D092
:100C4000032B0FD094F85830FF2B15D0104638BD29
:100C5000002004F092FC02460028ECD0FF2384F828
:100C60005830E8E7002004F075FC02460028E9D07F
:100C7000FF2384F85830E5E74FF00000012363F3C9
:100C800002006FF3C500054B054A9B1AC3F3C90365
:100C900063F38F10034904F0A7FFFEE718870000F5
:100CA000108700005489000038B504460D4604F052
:100CB000FEFA68B900221146204604F00EFBE8B99E
:100CC000204600F0E1FA78BB012384F8583014E0A4
:100CD0004FF00000022363F302006FF3C500474B9F
:100CE000474A9B1AC3F3C90363F38F108022454917
:100CF00004F07AFF012384F8583038BD4FF000002B
:100D0000022363F302006FF3C5003C4B3C4A9B1A7D
:100D1000C3F3C90363F38F1000223B4904F064FF5F
:100D2000012384F85830E8E7284604F00DFB2946F3
:100D3000204604F0D6FBE8B9284604F00FFB80F00B
:100D400001012A46C9B2204604F0C7FA40BB284632
:100D500004F004FB002839D0EB79012B43D02A465C
:100D600001212046FFF7A4FE002843D0052384F884
:100D70005830C2E74FF00000022363F302006FF324
:100D8000C5001E4B1E4A9B1AC3F3C90363F38F10A1
:100D900000221E4904F028FF012384F85830ACE7F4
:100DA0004FF00000022363F302006FF3C500134B02
:100DB000134A9B1AC3F3C90363F38F10002212492D
:100DC00004F012FF012384F8583096E729462046A4
:100DD000FFF724FF2A460021204604F07EFA012373
:100DE00084F8583089E72946204604F091FA84F8BF
:100DF000580082E7EB7984F858307EE718870000C6
:100E0000108700005C8900009C890000C4890000F4
:100E10002DE9F84F884691461F46DDF828A00B9E25
:100E200000250FE023460F4AE919404604F0D5FF9C
:100E3000A0B923460B4A05EB0A01484604F0ECFF33
:100E400070B92544B54206D2741BB4F5806FE9D958
:100E50004FF48064E6E70020BDE8F88F0120FBE74F
:100E60000120F9E7F419002070B584B004460D465E
:100E70006022002105F034FA3D4B63623D4B23654F
:100E800000260CE03146002003F099FE2C2101FBE6
:100E900006F120312144C0B200F062FF0136012E7C
:100EA000F0D969462046FFF7FFFE94F858308DF8D8
:100EB0000730042B25D8022B2ED2012B31D194F8E8
:100EC0005830FF2B31D0012B06D06A460021204636
:100ED00004F003FA064690B9002211462046FFF7B7
:100EE000E7FD064698BB10220021684605F0F8F998
:100EF000236A5B782B71236A5B68AB602C600025EA
:100F000030E0052B0DD1002004F037FB0028D6D0AF
:100F1000FF2384F85830D2E76946204604F02FFAC0
:100F2000CDE7FF2384F85830C9E74FF000000123D4
:100F300063F302006FF3C5000F4B104A9B1AC3F313
:100F4000C90363F38F100E4904F04EFEFEE703263B
:100F5000D5E7C5F101032C2202FB0343186A04F014
:100F60003BFF0135012DF4D9304604B070BD00BF00
:100F7000F41D0020F42100201887000010870000D5
:100F80005489000008B501460148FFF76DFF08BD10
:100F9000941900202DE9F04383B00F4615461C46F6
:100FA000DDF82880536A53F830601A68B61A0138A1
:100FB00053F83030A3EB02092368012B1BD03A46CB
:100FC0003146404604F02FFA019700964B464246C0
:100FD00041462846FFF71CFF2146284604F0F0F959
:100FE00023680133236018B10C4A1368013313607E
:100FF00003B0BDE8F083E368022B04D10B992846C7
:1010000004F015FADBE74146284604F010FA2246C0
:101010004146284604F043FAF0E700BFF4260020DA
:101020002DE9F04383B00E4615461C46526A52F82D
:1010300030101368A1EB0308013852F83070FF1A22
:101040002A6D52F830101368A1EB03092379012BA4
:1010500005D02379022B1CD003B0BDE8F0833246C3
:1010600039460A9804F0DFF9019600974B460A9A30
:101070000B992846FFF7CCFE2146284604F0A0F93C
:10108000022323710028E4D0114A1368013313604E
:10109000DFE7324649460B9804F0C5F90196CDF8D2
:1010A000009043460B9A0A992846FFF7B1FE214665
:1010B000284604F085F92368013323600123237156
:1010C0000028C9D0024A136801331360C4E700BF87
:1010D000F426002070B582B015461E46002B36D08F
:1010E000436A5C687379012B11D0022B17D000245E
:1010F000002003F064FD01A9C0B200F031FE68B326
:101100000124019804F068FE204602B070BD01BBC6
:1011100032681C4B1B689A42EAD80024E8E733681F
:10112000012B07D9174A1268934203D899B90024B2
:101130000121DDE7012B01D00024D9E701B1002412
:101140000129D5D13379022BD2D10021D0E7002457
:10115000CEE70024CCE700242146C9E720232A4615
:101160002146019804F039FE044640B9002EC8D04B
:101170002A68054B9A42C4D04FF0FF34C1E70124DE
:10118000BFE700BF000000203DB8F3962DE9F04F07
:1011900085B006460D4601920146002003F00CFF83
:1011A000041E62DBD5F85CA0304603F010FF8146D8
:1011B0004FF0000B01274FF0FF3805E0874201D0C8
:1011C0000BF1010B2C460746002C13DD651E5FFA60
:1011D0008AF101230DF10F0205FB0191304603F066
:1011E000FAFC002843DB0128E8D0B8F1FF3FE9D141
:1011F000A046E7E7BBF1010F0EDCB8F1FF3F3AD0A4
:10120000B8F17F0F1ADC012301994B7108EB03023F
:101210000A600B7100202BE04FF00000012363F304
:1012200002006FF3C500154B154A9B1AC3F3C9039F
:1012300063F38F10134904F0D7FCDEE70223019A11
:101240005371A8F1800808EBD8735B100133136069
:10125000B8F1000F08F00108B8BFC8F1000808F1A4
:10126000010882F80480002002E0072000E001204D
:1012700005B0BDE8F08F0020FAE700BF1887000036
:1012800010870000EC89000010B5846A436D9C4211
:1012900010D1802C21D80023A34244D2426A02EB11
:1012A000C3025168026D02EBC30252688A4227D121
:1012B0000133F1E74FF00000022363F302006FF304
:1012C000C5001A4B1A4A9B1AC3F3C90363F38F1064
:1012D000184904F089FC002010BD4FF000000223E3
:1012E00063F302006FF3C500104B114A9B1AC3F35E
:1012F000C90363F38F10104904F076FC0020EBE77C
:101300004FF00000022363F302006FF3C500074BA8
:10131000074A9B1AC3F3C90363F38F10074904F00C
:1013200063FC0020D8E70120D6E700BF1887000043
:10133000108700000C8A0000448A0000708A0000B8
:1013400010B586B004A9012003F0ADFE4FF00000F7
:10135000032363F302006FF3C500264B264A9B1A52
:10136000C3F3C90363F38F109DF81030012B2DD008
:10137000032B29D0214B9DF811209DF812109DF8C8
:1013800013400294019100921D4A1E4904F02CFC66
:101390009DF81030012B03D19DF81230032B17D08C
:1013A0004FF00000032363F302006FF3C500114BFD
:1013B000114A9B1AC3F3C90363F38F10124904F057
:1013C00013FC002006B010BD104BD4E7104BD2E741
:1013D0004FF0000063F302006FF3C500054B064AAF
:1013E0009B1AC3F3C90363F38F100A4904F0FCFB93
:1013F0000220E7E71887000010870000988A0000A5
:10140000AC8A0000BC8A0000148B0000A48A000093
:101410009C8A0000F88A0000F0B587B00C46496845
:1014200001F0FF21234DA94204D106461746226848
:10143000012A01D007B0F0BD04A9184603F033FE1D
:101440004FF00000032363F302006FF3C5001A4B53
:101450001A4A9B1AC3F3C90363F38F109DF8103027
:10146000012B24D0032B20D0154B9DF811209DF883
:1014700012109DF81350029501910092114A1249E1
:1014800004F0B2FB9DF81030032BD3D1394630461F
:1014900003F0CDFF384603F03DFEA168384603F067
:1014A00052FE3846FFF730FAC4E7084BDDE7084B39
:1014B000DBE700BF00010004188700001087000070
:1014C000988A0000288B0000BC8A0000A48A0000D3
:1014D0009C8A0000F0B585B007460D4600243E4BBF
:1014E0001C60436A5E6834443B490B6801330B60FF
:1014F0009442F8D3284603F031FF70B1F86D03F041
:1015000056FDBA6A013A00233344984201D9013AA0
:10151000FAE7314B1B68934214D203A9012000F073
:101520001FFC02A9022000F01BFC0223029A29469C
:101530003846FFF771FF6B79012B17D002236B71CF
:10154000012438E04FF00000022363F302006FF340
:10155000C500224B224A9B1AC3F3C90363F38F10C1
:10156000204904F041FB0123EB7132E01A4B1C6867
:101570000AE0029B0193039B00932B463A463146B7
:101580002046FFF707FD013C3CB12A68124B1B685F
:101590009B1A01339C42F6D8EBE701232B60CDE781
:1015A000029B0193039B00932B463A46314620460B
:1015B000FFF736FD0134084B1B68A34203D32B68A9
:1015C000A342F7D8ECE7039804F006FC029804F075
:1015D00003FC05B0F0BD00BF00000020188700002C
:1015E00010870000388B0000BFF36F8F72B60023A6
:1015F00008E003F120010B4A4FF0FF3042F82100D0
:101600000133DBB2072BF4D9002308E003F16001BA
:10161000044A4FF0FF3042F821000133DBB2072BC0
:10162000F4D9704700E100E008B50B6801330B60A6
:10163000014B1B68984708BD040000202DE9F84FB6
:1016400081468A4615469B460A9B002B05DD4FF0D6
:1016500001080A260027214C13E001230A93F6E72C
:10166000B5FBF4F051463030C84708F101080127B6
:10167000013EB5FBF4F304FB1355194BA3FB0434F3
:10168000E408092C14D9002FEAD1AC42E8D90A9B0E
:101690009E42EDDCBBF1020FEAD8BBF1010F05D091
:1016A00020205146C84708F10108E1E73020F8E75B
:1016B000514605F13000C847BBF1030F01D0BDE82A
:1016C000F88F0A9BA3EB080808F1FF34B8F1000F6C
:1016D000F5DD51462020C847A046F5E700CA9A3BF1
:1016E000CDCCCCCC014B1860704700BF040000206B
:1016F00000B583B002460B460021019101A90348C1
:1017000003F0E2FF03B05DF804FB00BF2916000000
:101710002DE9F04383B080460F461646124B1B68F6
:1017200098470546002400E00134104B104A9B1AEC
:10173000B4EB231F14DA0E4800EB041043685B7906
:10174000002BF1D023010A4AD358D3F80490B9F101
:10175000000FE9D000963B462A464146C847E3E7DA
:1017600003B0BDE8F08300BF0800002060870000E0
:101770004087000008B5044B044A1A604FF400404B
:1017800000F00EFA08BD00BF08000020E15B000079
:10179000054B064A9B1AB1EBD30F02D252F8310027
:1017A00070470020704700BF40870000108700008E
:1017B00008B50B4BC31A1B11013342681371436800
:1017C0001960436801225A71064B1B781BB1054B07
:1017D00001221A7008BD044803F01AF9F7E700BFA8
:1017E00040870000B82C0020CC00002038B5154BF5
:1017F000BFF35B8F53E8002F511C43E80010002813
:10180000F8D1BFF35B8FDAB9002405E00422002190
:101810002846FFF7CDFF01340B4B0C4A9B1AB4EB63
:10182000231F0DDA094D05EB04152B7B002BF2D09D
:101830002301064AD3585B69002BE7D09847E5E7B8
:1018400038BD00BFF82600206087000040870000F8
:10185000104B1B7803B1704710B5FFF7C7FF00248A
:1018600000E001340C4B0D4A9B1AB4EB231F0CDA39
:101870000A4800EB041043685B79002BF1D0230188
:10188000064AD3581B699847EBE7024B01221A70AE
:1018900010BD00BFB92C0020608700004087000009
:1018A0000EB400B582B0014603AB53F8042B01938C
:1018B000044803F009FF002002B05DF804EB03B018
:1018C000704700BF115C0000F0B585B011F0440F07
:1018D00005D01A4B1C6834B9002005B0F0BD18497A
:1018E000FFF7DEFFF9E7174B1968B2FBF1F1B1FB27
:1018F000F4F5154AA2FB0532D20A4FF4616606FBE5
:101900001256124BA3FB06735B0904FB15114FF42F
:101910007A7505FB01F1B1FBF4F707FB141105FB28
:1019200001F1B1FBF4F402940197C3EB0311A6EBB0
:10193000810100910649FFF7B3FFCEE7FC260020A6
:10194000788C000000270020C5B3A2918988888880
:10195000848C000061B108B52AB1064A52F82320F0
:1019600012B9054A00E0044A0449FFF799FF08BD8F
:10197000704700BF008D0000A08C0000A88C000004
:1019800011F0100F0BD108B511F0200F03D004494E
:10199000FFF786FF08BD0349FFF782FFFAE77047AC
:1019A000AC8C0000B08C00002DE9F04105460F46DC
:1019B000164698460699FFF7E3FF0024444505DAEA
:1019C00023492846FFF76CFF0134F7E7002409E0BC
:1019D0001F492846FFF764FF0BE01E492846FFF722
:1019E0005FFF01340F2C0CDC002C02DD14F0070F1C
:1019F000EED0B442F1D23A5D17492846FFF750FFC6
:101A0000EFE716492846FFF74BFF002409E010498D
:101A10002846FFF745FF0BE011492846FFF740FF36
:101A200001340F2C12DC002C02DD14F0070FEED075
:101A3000B44206D23A5DA2F120035E2BECD92E22ED
:101A4000EAE703492846FFF72BFFE9E7BDE8F08105
:101A5000D88C0000BC8C0000B48C0000C08C00004E
:101A6000C48C0000F8B5044616461D4649B9002747
:101A700086B10123079A934013F0100F16D10C4E34
:101A800009E00C4B079A53F822200B49FFF708FF97
:101A90000746EDE7064E06992846FFF779FE02460F
:101AA00031462046FFF7FCFE3844F8BD034EF2E70E
:101AB000C88C0000148D0000D48C0000D08C000075
:101AC00070B584B005461E46C1F3C203C1F3891048
:101AD00011F007040FD1089B32462946104803F045
:101AE000F3FD94B9304604F0ADF898B10D4928469D
:101AF000FFF7D6FE0EE002900193009413460122F8
:101B00000999284604F0C1F8E5E7224609992846D4
:101B100004F0AFF8284604F0DFF804B070BD00BF51
:101B2000115C0000DC8C00002DE9F04784B0074612
:101B30001D460C9E0D9CDDF8388001F0070AC1F3AC
:101B4000C203C1F3891102910193CDF800A013469D
:101B50000122414604F099F881462A460F49384649
:101B6000FFF79EFE74B12546102C28BF1025CDF836
:101B700000804B462A4631463846FFF715FF2E4473
:101B8000641BEFE752464146384604F072F8384687
:101B900004F0A2F804B0BDE8F08700BFA88C0000F4
:101BA000074B01221A60074B984205D94008044AA6
:101BB00013685B001360F6E7034B1860704700BFC3
:101BC0000027002040420F00FC26002008B50348F3
:101BD00002F00CFD024B586008BD00BF288D0000CC
:101BE0000C27002008B5024804F076F808BD00BFB5
:101BF0005C8D000000B585B00F2002900798019021
:101C0000069800900248FFF78FFF05B05DF804FBCF
:101C10005C8D000000B583B00F2001900498009007
:101C20000248FFF74DFF03B05DF804FB5C8D000038
:101C3000014B01221A707047BB2C002008B518B95F
:101C4000044B00221A7008BD41F2883006F010FCE7
:101C5000F9E700BFBB2C002038B504460A4B01222F
:101C60001A700A4B1B7803B938BD002000F074FAD3
:101C70000028F9D0044B1B78002BF5D0651E2046B8
:101C8000FFF7DCFF2C46F0E7BB2C0020BC2C00202B
:101C9000F8B506460D46042706E03846FFF7DCFF98
:101CA0009CB90D4B1B7883B12A463146002000F0C9
:101CB000EFF904460028F0D1074B1B78002BEFD03A
:101CC000013F3846FFF7BAFFEAE714B9024B1B7829
:101CD00003B92C462046F8BDBB2C002008B5034BA9
:101CE00001221A70024803F0F7FF08BDBC2C002047
:101CF000948D000000B585B00F20029007980190E8
:101D0000069800900248FFF70FFF05B05DF804FB4E
:101D1000948D000000B583B00F20019004980090CE
:101D20000248FFF7CDFE03B05DF804FB948D000080
:101D300010B404460023084A12689A4209DD1A01C9
:101D40000649096801EB03108A5CA24202D0013304
:101D5000F1E7002010BC7047F48D00000C0000205B
:101D6000084B1B683BB110B50C46FFF7E1FF28B1EB
:101D70002060002010BD6FF00C0070476FF0010074
:101D8000F8E700BF0C00002000B58BB003AB009358
:101D9000024B03F0FAFF0BB05DF804FB4F5D00004F
:101DA00010B504460A2807D0074B1868E1B28368CB
:101DB0005B689847204610BD034B186883685B68D2
:101DC0000D219847F0E700BF3027002010B5044CE4
:101DD000204600F011FC2046FFF784FC10BD00BF38
:101DE000A11D000008B5044802F000FC034B186078
:101DF000FFF7ECFF002008BD288D000030270020F1
:101E000008B501214FF4807004F06DF828B100216D
:101E10000A4804F08EF8437A33B102214FF48270FD
:101E200004F061F828B908BD0021044804F056F90F
:101E3000F3E70121014804F051F9F4E75C000020C8
:101E400020F07F40014BC3F840057047001001406F
:101E5000014BD3F8400570470010014082B0044B9D
:101E600000221A601B680193019B02B0704700BFFB
:101E700040110140024B4FF48032C3F844237047B5
:101E800000100140024B4FF48032C3F80823704722
:101E900000100140024B4FF48032C3F80423704716
:101EA00000100140014BD3F80405704700100140B9
:101EB00038B5FFF7D3FFFFF7CBFF054D2C68214660
:101EC00004F042F904442C6002F0E6FD38BD00BF86
:101ED0004C27002038B5FFF7E5FF0446FFF7B8FFB1
:101EE0000546FFF7BBFF2046FFF7AAFFFFF7C2FF3B
:101EF0002146284604F028F9012805D0054B4FF467
:101F00000032C3F8802138BD0F2006F0B1FAFFF788
:101F1000A5FFF3E700E100E038B5134802F066FBE7
:101F2000F0B18268126801219047104D0024C5F875
:101F30000845FFF793FF0E4B4FF40032C3F88021A2
:101F4000FFF7A8FF22460121112000F073F91120AC
:101F500000F060F90123074A13602B60204638BD6A
:101F60004FF0FF30FBE700BFF88D0000001001408C
:101F700000E100E00810014038B5B0F1FF3F1ED08D
:101F8000441E114B9C4201DC002C1BDD0E4B9C427D
:101F900000DD0E4CFFF786FF0D4B1D68294604F04F
:101FA000D3F8B0F5000F00D3002420440130B0F581
:101FB000000F00D30548284404F0FCF838BD00F5B4
:101FC0000000DDE70024E5E7FEFF7F00FFFF7F0064
:101FD0004C27002010B54FF02003EFF3118483F35A
:101FE0001188BFF36F8FFFF75DFF044B196804F092
:101FF000ABF884F31188BFF36F8F10BD4C2700201E
:1020000038B54FF02003EFF3118583F31188BFF348
:102010006F8FFFF747FF054B1C68214604F094F8CB
:10202000204485F31188BFF36F8F38BD4C27002003
:1020300010B5114C032323616361104AA261104B58
:10204000E3614FF4806323620023A3626362E3626F
:1020500022660C4A62661022A2662367E366636703
:102060000949E01D04F0EEF80849204604F0EAF8BA
:102070002023A37110BD00BF50270020508E000008
:1020800008280020F82700205C8E0000608E0000E9
:102090002DE9F84304460E46154600EB40032D4A51
:1020A00002EBC302936A576ABB424BD800EB400273
:1020B000284901EBC202D2F82080A8EB070909F1F8
:1020C000FF32954204D913449D4216D900203EE0C8
:1020D000DFF88080631C03EB430308EBC3035868FD
:1020E0002A463146384404F0D7F83D4404EB440412
:1020F00008EBC4046562012029E0431C03EB4303A1
:10210000144A02EBC30358684A463146384404F087
:10211000C3F8A7EB08077F1907D104EB44040D4B64
:1021200003EBC4046762012011E0631C03EB43036B
:10213000084A02EBC3033A4606EB0901586804F06B
:10214000ABF8EAE7DB1B013BAB42C1D20020BDE8A4
:10215000F88300BF50270020064B00EB400203EB42
:10216000C202926A00EB400003EBC000406A801A92
:10217000704700BF50270020094A936858670949F3
:102180000968996708494B6843F080534B60002306
:1021900083F31188BFF36F8F9368986F704700BF08
:1021A0008C2C0020D890000000ED00E00F498A68D8
:1021B0004FF038001044EFF3098C80E8F01F202026
:1021C00080F31188BFF36F8F094F4FF00066CA6923
:1021D0008A603E60506F0023536780F3118802F1DC
:1021E000380090E8F01F8CF3098870478C2C002091
:1021F00004ED00E01EF0040F0CBFEFF30880EFF3D6
:102200000980816911F8021C0229FFD001B503F091
:10221000F0FF01BD43B2002B08DB00F01F005B099B
:10222000012202FA00F0024A42F82300704700BF80
:1022300000E100E0013143B2002B08DB4901C9B2E3
:1022400003F1604303F5614383F80013704700F026
:102250000F004901C9B2014B1954704714ED00E059
:10226000014910220A60704710ED00E030BFFFF70F
:10227000FDBF00BF08B50E4B0E4A22F07F029A60E8
:10228000BFF34F8FBFF36F8FD3F8882022F4700213
:10229000C3F88820EFF3148323F0040383F3148836
:1022A00002F0CAF902F0D4F900F022F902F00CFAB7
:1022B00000ED00E00000000001B5EFF30580A0F1A3
:1022C00010004FEAC0000449014409C99847BDE81D
:1022D000014002490847000090850000ED240000FD
:1022E00004F01EF8202080F3118808484FF40061A4
:1022F000401880F30988EFF314800221084380F32B
:102300001488BFF36F8FFFF7B5FF0000C85400209B
:10231000EFF30880EFF30981724601B500F094F8FD
:1023200001BD00BF10B514460F4B9A6A9A6A9B6AAA
:1023300013F0020F0BD00C4B5A6B9B6A13F0800FFB
:1023400005D021B1084A936A23F080039362064BBB
:102350009A6A9A6A9A6A9A6A42F0FF029A6203F04B
:1023600054FF2070002010BD00ED00E010B51446B1
:10237000124B9A6A9A6A9B6A13F4007F0BD00F4B38
:102380009A6B9B6A13F4004F05D021B10B4A936AF4
:1023900023F400439362094B9A6A9B6A13F4807F8B
:1023A00001D1064B9B6A054A936A43F47F439362CB
:1023B00003F02BFF2070002010BD00BF00ED00E0F7
:1023C000074B9A6A9A6A9A6A9A6A9A6A9A6A9A6A9F
:1023D0006FEA02426FEA12429A620020704700BF21
:1023E00000ED00E000230B70144BDA6A12F00202D9
:1023F00021D110B50446D86A10F0804010D028339F
:102400001B7843B90E4B1B785BB90E4B1B889BB2F4
:102410006BB9104604E00A4601212046FFF782FF0F
:1024200010BD0A4601212046FFF7A0FFF8E720462D
:10243000FFF7C6FFF4E70020704700BF00ED00E0A3
:1024400029ED00E02AED00E070B58AB00C46224B81
:102450005968C1F30801002383F31188BFF36F8F1C
:1024600002F07F43B3F17F4F15D102F00C03082B2C
:1024700014D012F0080F0BD000260DF127022046D1
:1024800003F0C5FE05469DF8273053B10AB070BD74
:1024900004460126F1E700263446EEE700263446DE
:1024A000EBE72022214601A803F0F6FE4EB1089B7F
:1024B000C3F308025AB96FEA53236FEA4323089320
:1024C00005E0089B23F4FF7323F00103089301A99F
:1024D000284603F08AFED9E700ED00E0024A53697E
:1024E00043F010035361704700ED00E0704700BFF8
:1024F000002206E002F00F01094B0B44202119765F
:1025000001322F2A0ADC53B2002BF3DB03F16043C4
:1025100003F56143202183F80013F1E7704700BF02
:10252000FCEC00E038B504464FF02003EFF31185D2
:1025300083F31188BFF36F8F02F0C8F90A4B9B68D1
:10254000A34203D0284605F027FF38BD074B5B6840
:10255000C3F308032BB1054A536843F0805353601B
:10256000F0E72846FFF708FE8C2C002000ED00E085
:10257000064A90600B6823F01F03034343F01003E7
:10258000D3608B6843F001031361704790ED00E066
:10259000034B05225A60BFF34F8FBFF36F8F704715
:1025A00090ED00E0BFF35F8F014B00225A6070474F
:1025B00090ED00E038B50E4B1D68082D15D8FFF7DB
:1025C000F1FF0024A5420AD9094B596804EB4402E3
:1025D000930019442046FFF7CBFF0134F2E7054B87
:1025E0001D70FFF7D5FF002038BD4FF0FF30FBE72F
:1025F0007C8E0000BD2C0020014B1860704700BF8E
:10260000100000204FF02003EFF3118283F31188B4
:10261000BFF36F8F01230649C1F840354FF0804169
:10262000C1F8783582F31188BFF36F8F00207047AF
:1026300000E0014030B108B58001034B43F00103D5
:10264000984708BD704700BF70870000F0B443682A
:102650005F68374B1340374CA34227D012D8062B64
:1026600026D004D9B3F5801F09D1012416E00BB39D
:10267000022B01D1042411E06FF0150053E06FF03C
:10268000150050E02C4CA34216D0B3F5A00F01D199
:10269000032403E0B3F5800F47D1022412F0100F9A
:1026A0000CD112F0200F27D0012508E00724F5E710
:1026B0000624F3E70024F1E70524EFE70325C2F33E
:1026C000402312F4807F0CBF0126002612F4007F05
:1026D00006D012F4006F11D001228A40C7F80825F5
:1026E0004268127A01F01F0141EA42111F290DD9F7
:1026F00001F01F01114A0BE00025E0E712F4806FA2
:10270000EED001228A40C7F80C25E9E74FF0A0423D
:1027100043EA460343EA850343EA042301F5E071F3
:1027200042F821300020F0BC70476FF01500FAE746
:102730000600F000060010000200400000030050F8
:10274000F0B4C6684768F1687269B369134321EA57
:1027500003010122002012E04FF0020C1EE04FF0B6
:10276000A04503F5E07355F8234024F4403444EACF
:102770000C4445F8234021EA02010130520099B18E
:102780000A42FAD03C7A00F01F0343EA441334694A
:10279000C44014F0010FDFD14FF0030C1F2BDED922
:1027A00003F01F03014DDCE7F0BC7047000300504D
:1027B000F0B4C3684768D9685A699869024321EA46
:1027C00002017A68D2F810251869504021EA000009
:1027D000012200240DE04FF0A04603F5E07356F807
:1027E000235025F4403546F8235021EA02010134F4
:1027F000520061B11142FAD03D7A04F01F0343EA5E
:1028000045131F2BE7D903F01F03024EE5E7F0BC89
:10281000704700BF000300500023072B4AD870B454
:1028200083B001249C40BFF35B8F50E8005F45EA12
:10283000040640E8006CBCF1000FF6D1BFF35B8FDB
:10284000DD4015F0010F08D00133DBB2072BE8D9CA
:102850006FF0120003B070BC704703F140008000BD
:1028600080B2164D03F5A27355F8236026F44F3657
:1028700026F4407645F8236055F82360090201F4F8
:102880007C51120402F440320A43324345F82320BB
:1028900000F1804202F5C0420020106012680192EF
:1028A000019A55F8232042F0010245F82320C5F88B
:1028B0000443CFE76FF01200704700BF0060004094
:1028C00008B50B4B1B780BB1002008BD084B01224B
:1028D0001A70002205210620FFF7ACFC0620FFF746
:1028E00099FC044B4FF00042C3F80423ECE700BF0F
:1028F000BE2C00200060004030B41D4BD3F80453C0
:10290000EDB2002300E00133072B2ED803F5A272AD
:10291000174C54F82220C2F305229142F3D125FA34
:1029200003F212F0010FEED003F01F02012101FAB1
:1029300002F25C0900EB8400D243BFF35B8F50E8E6
:10294000004F144040E80045002DF8D1BFF35B8FE5
:10295000074A03F5A27452F8240020F0010042F85F
:10296000240001FA03F3C2F8083330BC704700BFFB
:102970000060004070B50D46C66843681B7A01F0E0
:102980001F0444EA431421462448FFF7B5FF1F2CD7
:1029900021D904F01F00224A00F5E07152F82130DD
:1029A00023F4403342F82130F368EB4013F0010F79
:1029B00032D07369EB4013F0010F18D0B369EB40CC
:1029C00013F0010F0BD1316921FA05F515F0010F54
:1029D0000BD0012204E020464FF0A042DCE70322A6
:1029E00021460E48FFF718FF17E00222F8E7316989
:1029F00021FA05F515F0010F0CD1032100F5E07067
:102A000052F8203023F4403343EA014342F82030A7
:102A1000002002E00221F1E7002070BD402C0020E0
:102A20000003005070B5C46845682E7A01F01F0598
:102A300045EA4615B2F5A03F25D0B2F5005F34D087
:102A4000E56801268E403543E560B2F5A03F32D0FF
:102A5000626901258D4022EA05026261B3F5C02F4B
:102A60002ED0A26901258D4022EA0502A261B3F5AC
:102A7000802F2AD0236901228A4023EA020323619E
:102A8000FFF778FF70BD1F2D0CD905F01F05114E03
:102A900005F5E07556F8255015F0010FCDD06FF013
:102AA0002200EFE74FF0A046F2E7E56801268E40EE
:102AB00025EA0605C8E7626901258D402A43CCE76F
:102AC000A26901258D402A43D0E7236901228A406B
:102AD0001343D4E70003005070B584B00023029381
:102AE0000393484B1C680CB9002111E0464D284661
:102AF000FFF75EFE029005F11000FFF759FE03900C
:102B0000404B00221A601B680093009BECE70131E8
:102B100007292FD801F140039B009AB201238B4073
:102B20003A48D0F804030342F1D002F1804303F5A0
:102B3000C0431B68002BEAD001F5A273334850F85C
:102B40002300C0F34033C0F30420012505FA00F050
:102B500004AD05EB830353F8085C054343F8085CB8
:102B600002F1804303F5C04300221A601B68019301
:102B7000019BCCE7029E2EB9039EF6B9002C37D1FB
:102B800004B070BD204BDB68596819B10D4649B1DE
:102B90000D6807E00D4605E06DB12B4605B12B68C9
:102BA00029461D460029E7D08A683240F4D04B6898
:102BB00015489847F0E72B46F2E7134BDB69596855
:102BC00019B10D4649B10D6807E00D4605E06DB13C
:102BD0002B4605B12B6829461D460029CED08A68B0
:102BE0003240F4D04B680A489847F0E72B46F2E7AA
:102BF000054C2046FFF7A4FD04F11000FFF7A0FDEF
:102C0000BEE700BF7C6100409C00002000600040E7
:102C1000AC000020034BD3F8003413F0010FF9D0BF
:102C2000704700BF00E00140024B0B6001231360BE
:102C3000704700BF442C002000487047048F0000FC
:102C400010B503F0A2FE034C206003F09AFE606012
:102C5000002010BD442C0020054B1B6823B9054BF8
:102C60001B781BB10120704701207047002070477E
:102C70001C210040BF2C002082B0054A00231360B5
:102C800012680192019A034A137002B0704700BFA4
:102C90001C210040BF2C0020B1F5164F6DD03BD851
:102CA000B1F5165F6BD00AD9B1F5E14F72D025D9D5
:102CB00047F6122399422CD14FF4000313E0B1F5EB
:102CC000966F5ED007D9B1F5166F60D0B1F5965FFB
:102CD00011D13A4B07E0B1F5967F55D0B1F5167F8B
:102CE00006D14FF41C33364AC2F824350020704711
:102CF0006FF0150070476FF015007047B1F5615F18
:102D00004AD0B1F5964F01D12E4BECE76FF015008C
:102D100070476FF015007047B1F5613F3FD009D99A
:102D2000B1F5612F42D01DD9274B994243D14FF0C5
:102D30008053D8E7B1F5963F33D004D9B1F5E13FE0
:102D40000DD1224BCFE74DF6C02399422BD0B1F5E0
:102D5000614F01D11E4BC6E76FF0150070476FF051
:102D6000150070471B4B994222D0B1F5E12F01D1DC
:102D7000194BB8E76FF015007047184BB3E7184BC5
:102D8000B1E74FF49E23AEE74FF4A033ABE74FF427
:102D90001D23A8E7134BA6E74FF46C13A3E7124BD0
:102DA000A1E7124B9FE74FF465039CE7104B9AE7AE
:102DB0004FF0806397E76FF01500704700B0130085
:102DC0000020004000A04E0040420F0000E0D7016C
:102DD00000F0EB0090D0030000705F0700509D00F2
:102DE0000050270000F0750000B0AF0300903A01DA
:102DF00000D0BE0E094B1B6863B182B0074B0020A8
:102E000018601B680193019B054BD3F818350B70B4
:102E100002B070474FF0FF30704700BF08210040FC
:102E200000200040024BD3F88004C3F880047047B0
:102E30000020004030B583B005460C464B79012B8D
:102E400006D0032B11D06FF02203184603B030BD1B
:102E500000238DF80630A379032B36D1E37943B1F3
:102E6000012B10D06FF02203EFE710238DF806300E
:102E7000F1E700238DF80430237943B1022B20D0F1
:102E80006FF02203E1E701238DF80430F4E700231B
:102E90008DF8053021682846FFF7FEFE0346B8B9D5
:102EA0009DF805109DF806009DF8042001430A4393
:102EB0000949C1F86C25EA6894E8030082E8030038
:102EC000C3E70E238DF80530E4E76FF02203BCE77B
:102ED0006FF02203B9E700BF00200040F8B50E46AE
:102EE0001546002427462B1B002B0BDDFFF7B4FEF5
:102EF00040B1FFF7C1FE631C345D0348C0F81C45B8
:102F0000DCB2EFE73846F8BD0020004010B483B0D3
:102F100000231846D41A002C0FDD094C246864B134
:102F2000074800240460006801900198581C054C73
:102F3000D4F81845CC54C3B2EBE703B010BC7047CB
:102F40000821004000200040024B0422C3F8042363
:102F5000704700BF00200040024B0422C3F8082342
:102F6000704700BF00200040024B1868003818BFAF
:102F70000120704708210040024B4FF40072C3F853
:102F80000423704700200040024B4FF40072C3F846
:102F9000082370470020004010B504460D4BD3F8BD
:102FA000043313F0800F07D10A4BD3F8043313F026
:102FB000040F07D1002010BDFFF74EFE0028F3D00C
:102FC0000120F8E72046FFF7CFFF0028F3D00120CB
:102FD000F1E700BF00200040024B1960024B1A606D
:102FE000704700BF4C2C0020502C002000B583B04F
:102FF000084B1B682BB1074B00221A601B6801931A
:10300000019B054B1B6813B1044A1068984703B035
:103010005DF804FB242100404C2C0020502C0020A3
:1030200008B5054B8022C3F808230C3301221A602F
:1030300005F04FF908BD00BF0020004008B505F0BD
:1030400047F90D4B01221A60083B8022C3F8042384
:103050004FF02002EFF3118382F31188BFF36F8FDB
:10306000064A12781AB1064A0421C2F8001183F305
:103070001188BFF36F8F08BD08200040BF2C0020CF
:1030800000E100E038B50C4605F0ECF9C0B9642564
:10309000194B0122BFF35B8F53E8001F002903D1B6
:1030A00043E800200028F7D1BFF35B8F0BD021202D
:1030B000002101F07BFC013D15F0FF05E8D102E0A5
:1030C0000D4B01221A60FFF7D7FD0C4B01221A604D
:1030D000083BC3F81C454FF47A74FFF7BDFD20B9D7
:1030E000012003F01DFC013CF7D1054B01221A60C1
:1030F000014B00221A6038BD542C002008200040EB
:103100000C20004030B583B04FF0A0434022C3F8FC
:1031100008250324C3F818470021C3F82017184ACC
:103120000825C2F814550625C2F80C552025C3F809
:103130000855C3F81447C3F81C170523C2F808350F
:103140000723C2F81035C168FFF774FE044610B1BA
:10315000204603B030BD0A4B0422C3F800250949BC
:1031600000220A6009680191019901211960064B4A
:1031700019700220FFF75EF80220FFF74BF8E7E72F
:103180000020004008210040BF2C002043681A683E
:10319000B1F5164F6FD03AD8B1F5165F6ED00AD997
:1031A000B1F5E14F75D024D947F6122399422BD1BE
:1031B0004FF4000313E0B1F5966F61D007D9B1F574
:1031C000166F63D0B1F5965F10D13C4B07E0B1F5B7
:1031D000967F58D0B1F5167F05D14FF41C33C2F855
:1031E0002435002070476FF0150070476FF0150010
:1031F0007047B1F5615F4ED0B1F5964F01D1304BBC
:10320000EDE76FF0150070476FF015007047B1F5EE
:10321000613F42D009D9B1F5612F46D01FD9294B62
:10322000994248D14FF08053D9E7B1F5963F37D056
:1032300005D9B1F5E13F0FD14FF0EB73CFE74DF674
:10324000C02399422ED0B1F5614F02D14FF46B03E8
:10325000C5E76FF0150070476FF0150070471A4B07
:10326000994225D0B1F5E12F02D14FF0E863B6E7DE
:103270006FF0150070474FF41D03B0E7134BAEE736
:103280004FF49E23ABE74FF4A033A8E74FF41D2380
:10329000A5E70F4BA3E70F4BA1E74FF06C739EE739
:1032A0000D4B9CE74FF4650399E74FF0706396E789
:1032B0004FF0806393E76FF01500704700B0130084
:1032C00000A04E0040420F0090D0030000502700A5
:1032D00000C0750000F03A0000903A01F0B583B0EC
:1032E0000C46164643681D68C7680A681F2A1BD922
:1032F00002F01F02444901239340C1F808352368B6
:103300001F2B14D903F01F033F4A03F5E073032179
:1033100042F823106368B3F1FF3F12D01F2B09D985
:1033200003F01F03384A07E04FF0A041E3E74FF0F6
:10333000A042EAE74FF0A04203F5E073002142F813
:10334000231022686368C5F80C25C5F81435A368F6
:10335000B3F1FF3F0CD01F2B03D903F01F032A4A00
:1033600001E04FF0A04203F5E073002142F8231082
:10337000E368B3F1FF3F1AD01F2B03D903F01F03FB
:10338000214901E04FF0A041012202FA03F3C1F804
:103390000835E3681F2B03D903F01F031A4A01E025
:1033A0004FF0A04203F5E073032142F82310E268D6
:1033B000A368C5F80825C5F81035C16803F03FF9C2
:1033C00000BB0823C5F800356368B3F1FF3F0ED09A
:1033D0000023C5F81031D5F810310193019B07F196
:1033E0001003C5F834350123C5F838352B604EB1CC
:1033F000BB689B68C5F844350023C5F848350123F0
:10340000AB60EB6003B0F0BD0003005030B585B099
:1034100005460A4B6C460FCB84E80F0000220121C1
:103420002820FEF707FF2820FEF7F4FE01222146A0
:103430002846FFF753FF05B030BD00BF608700008E
:103440000D4B1A68B2F1FF3F05D00C4B1B68082AE0
:1034500008D0002070470A4B1A7808331B68C3F362
:103460000313F4E7032B03D8DFE803F00404040498
:103470000020704701207047300100103401001017
:10348000E00F00F00D4B1A68B2F1FF3F05D00C4B76
:103490001B68082A08D0002070470A4B1A780833A6
:1034A0001B68C3F30313F4E7032B03D8DFE803F02F
:1034B000040404040020704701207047300100100C
:1034C00034010010E00F00F0064B1B68064A12683A
:1034D000082B01D0002070470AB10020704701205E
:1034E000704700BF3001001034010010064B1B680C
:1034F000064A1268082B01D0002070470AB100204C
:1035000070470120704700BF3001001034010010E7
:10351000064B1B68064A1268082B01D00020704732
:103520000AB1002070470120704700BF3001001031
:1035300034010010064B1B68064A1268082B01D0A4
:10354000002070470AB1002070470120704700BF7B
:1035500030010010340100100D4B1A68B2F1FF3F2A
:1035600005D00C4B1B68082A08D0002070470A4B76
:103570001A7808331B68C3F30313F4E7032B03D84B
:10358000DFE803F0040404040020704701207047C2
:103590003001001034010010E00F00F0014B024A2E
:1035A0001A607047400000200090D00308B5FFF774
:1035B00047FF40B14FF080430022C3F80C21C3F80D
:1035C0001021C3F83825FFF75DFF002846D04FF0E3
:1035D0008052D2F804145B4BC3F82015D2F80814BB
:1035E000C3F82415D2F80C14C3F82815D2F8101417
:1035F000C3F82C15D2F81414C3F83015D2F81814E7
:10360000C3F83415D2F81C14C3F84015D2F82014AE
:10361000C3F84415D2F82414C3F84815D2F8281476
:10362000C3F84C15D2F82C14C3F85015D2F8301446
:10363000C3F85415D2F83414C3F86015D2F838140E
:10364000C3F86415D2F83C14C3F86815D2F84014D6
:10365000C3F86C15D2F84424C3F87025FFF734FF83
:1036600010B1394B394A1A60FFF740FF18B1384B97
:10367000FB22C3F81825FFF74BFF48B135490B680B
:1036800023F00F03344A126802F00F0213430B6059
:10369000FFF750FF18B1314B4FF400721A60FFF77B
:1036A0005BFF60B14FF08043D3F8003413F0010F9B
:1036B00005D04FF080436FF00102C3F800244FF0B3
:1036C0001023D3F80032002B08DB4FF01023D3F87F
:1036D0000432002B02DBFFF761FF08BD204B012203
:1036E000C3F804251E4BD3F80034002BFAD04FF05A
:1036F00010231222C3F80022194BD3F80034002BF8
:10370000FAD04FF010231222C3F80422144BD3F83E
:103710000034002BFAD0124B0022C3F80425104BC2
:10372000D3F80034002BFAD0BFF34F8F0D49CA688D
:1037300002F4E0620C4B1343CB60BFF34F8F00BF2A
:10374000FDE700BF00C000408C56004048810300E8
:1037500000F00040E40E0040580200104096024085
:1037600000E0014000ED00E00400FA05024B0022F9
:10377000C3F80425704700BF00E00140024B01225E
:10378000C3F80425704700BF00E00140024B02224D
:10379000C3F80425704700BF00E00140044BD3F894
:1037A000003413F0010FF9D00160BFF35F8F704751
:1037B00000E0014010B5044603F0C7F808B9084816
:1037C00010BDFFF7E3FF074BC3F80845054BD3F8DF
:1037D000003413F0010FF9D0FFF7C8FF0248EFE7FC
:1037E0000A00AD0B00E001400000AD0B0268124B77
:1037F0009A4215D1C269A3F11023A3F1EF139A42A3
:1038000010D18368012B0FD8C36813B102699342AA
:103810000CD0436963B1826993420BD0002070479A
:103820000120704701207047012070470120704738
:10383000002070470120704755AA00FF70B5114B5A
:103840009D68B5B12846FFF7D1FF064698B9EB68E9
:1038500013B10126304670BD2C69002CFAD02046E9
:10386000FFF7C4FF48B9E368AB4208D12546246995
:10387000F3E70126EEE70126ECE70126EAE7012659
:10388000E8E700BF782C0020002800F0928038B5CF
:103890000546484B1B68002B6CD0464A9268002AAC
:1038A00068D0834204D8434A52681344834203D801
:1038B000414B1B6801209847A5F120042046FFF7E3
:1038C00095FF18B13C4B1B680120984755F8183CF0
:1038D000012B03D0384B1B6801209847002345F883
:1038E000183C55F8143CCBB19A68002A43D155F8DE
:1038F0001C2C59680A4420325A6055F8143C55F87B
:10390000102C1A6155F8145C2B6903B1DD6020227C
:103910000021204602F0E4FC23462C4625691DB315
:10392000AA680ABB6B6862681344203363602B6922
:10393000236163690BB323B3A2699A61A3690BB1D5
:1039400062695A616B696361AA69A261EBB19C61AA
:10395000A36903B15C61236903B1DC60202200210B
:10396000284602F0BDFC2B4693B1124B1B6913F0A5
:10397000020F15D138BD0023D0E7A269002ADAD1A1
:10398000E0E7A2690B4BDA60D8E70A4BDC60DFE7BF
:10399000084BDB68A36103B15C61064BDC60E4E7C4
:1039A000FFF74CFF0028E5D0034B1B680120984728
:1039B000E0E77047782C00204800002070B54F4B9E
:1039C000DC681D68002D5AD09D68002D57D001FB82
:1039D00000F6002800F08880002900F08780B6FB00
:1039E000F0F0884240F0848016F1040F00F28280EB
:1039F00016F0030F08D026F00305043534B16368D0
:103A0000AB4203D2A469F9E73546F7E7002C73D03F
:103A1000A3681BB13A4B1B68012098476268521B90
:103A2000232A2ED905F120016318203A5A6000227A
:103A30009A60DC6022691A61324860503249D9616B
:103A400002B1D36062695A61A1699961002A3FD0CD
:103A500093619A6902B153610122A260656023619A
:103A600000236361A361254B1B6913F0010F32D161
:103A700004F1200532460021284602F031FC284698
:103A800070BD0123A3606369ABB1A2699A61A369A8
:103A90000BB162695A6100236361A361174B1B6913
:103AA00013F0010F0BD104F1200532460021284606
:103AB00002F016FCE3E7A269104BDA60E7E7FFF7D4
:103AC000BDFE0028EFD00E4B1B6801209847EAE7A7
:103AD0000A4AD360BDE7FFF7B1FE0028C8D0084B03
:103AE0001B6801209847C3E70025C8E70025C6E703
:103AF0000025C4E70025C2E72546C0E7782C002052
:103B00004800002055AA00FF669911EE38B5054619
:103B10000C4614220021134802F0E2FB124913481C
:103B200000F038F8232C1CD915F0030304D01C44F2
:103B3000043CC3F104031D4422460021284602F040
:103B4000CFFB084B1D605C609D60203C6C609A68F8
:103B5000074911609A68A1F11021A1F1EF11D1611B
:103B6000DA6038BD782C002089380000BD390000AB
:103B700055AA00FF08B5024B1B68984708BD00BF57
:103B80004400002008B5024B1B68984708BD00BFE1
:103B90004C000020024B1860024B19600020704757
:103BA000440000204C00002031B108B50A46034B08
:103BB0001B680021984708BD704700BF50000020D7
:103BC000F8B504460D46476800F10806304603F094
:103BD00063FA874251D16368B3F5807F4FD80021E3
:103BE000304603F059FC00282ADD0021304603F05E
:103BF0002BFA28B3CDB104F12C060021304603F096
:103C00004BFC00281EDD0021304603F01DFAC8B130
:103C100004F138060021304603F03EFC002811DD97
:103C20000021304603F010FA60B1002104F11400C5
:103C300003F032FC002824DD35B9ADB92846F8BDC3
:103C4000124DFBE7114DF9E7002104F1440003F0A8
:103C500023FC002806DD002104F1500003F01CFCC9
:103C60000028EADC094DE9E7002104F15C0003F0DB
:103C700013FC002807DD0025E0E7044DDEE7034DD7
:103C8000DCE7024DDAE7014DD8E700BF80BFFFFF58
:103C900070B5044600221146FFF792FFE0B90646D0
:103CA00004F10805284603F0E0F97F2816D91434FA
:103CB0000021204603F0C8F960B1204603F0D5F991
:103CC000012807D92946204603F09EFB002801DA87
:103CD000304670BD024EFBE7014EF9E7004EF7E7B4
:103CE00000BEFFFFF0B587B004460D461646002221
:103CF0001146FFF765FF98BB03A803F014F962684B
:103D0000294603A803F0CEF9054630B103A803F015
:103D100010F915BB284607B0F0BD04F10805294687
:103D200003A803F071FB002802DB6FF00305EDE749
:103D3000676804F1680300932B4604F1140203A999
:103D4000084603F00CFF05460028DFD13A4631460D
:103D500003A803F0D6F90546D8E7A5F58545D9E7C8
:103D6000004DD7E780BFFFFF0023036043600B4691
:103D7000B9B9194A8260194AC260194A0261194ADE
:103D80004261194A8261194AC261194A026202F10A
:103D90007452A2F52302A2F6924242628366002088
:103DA0007047144A8260144AC26002F1794202F5F7
:103DB000740202F501620261104A4261104A826196
:103DC00002F1D14202F5C01202F51E62C2610D4A33
:103DD00002620D4A4262E1E767E6096A85AE67BBA7
:103DE00072F36E3C3AF54FA57F520E518C68059BDD
:103DF000ABD9831FD89E05C107D57C3639590EF73C
:103E0000310BC0FFA78FF964A44FFABE2DE9F04F24
:103E1000D1B00790002306E09A1C50F8222008AC8D
:103E200044F823200133072BF6D900220F2A11D89A
:103E300011F8224001EB820043781B0443EA04633B
:103E4000847843EA0423C078034310A840F8223062
:103E50000132EBE74FF0000E42E10F9B0C9E4FEA60
:103E6000F62181EAB61181EA766119440E9C0D981B
:103E700084EA0003334063401944DFF8348758F87C
:103E80002E3019440DF1400C5CF82E301944089D79
:103E90004FEA753A8AEAB50A8AEAB55A099F05EAED
:103EA00007030A9A45EA070902EA090943EA0903EE
:103EB0009A440B9B01EB030951444FEAF92383EA2F
:103EC000B91383EA79631C4486EA000309EA030311
:103ED00043401C440EF1010A58F82A301C445CF897
:103EE0002A301C444FEA713383EAB10383EAB153A9
:103EF00005EA010A45EA010B07EA0B0B4AEA0B0A3D
:103F0000534422441C444FEAF22383EAB21383EA67
:103F10007263184486EA09031340734018440EF193
:103F2000020A58F82A3018445CF82A3018444FEA3C
:103F3000743383EAB40383EAB45301EA040A41EA1E
:103F4000040B05EA0B0B4AEA0B0A534407441844D6
:103F50004FEAF72383EAB71383EA77631E4489EABB
:103F600002033B4089EA03031E440EF1030A58F89A
:103F70002A301E445CF82A301E444FEA703383EA2C
:103F8000B00383EAB05304EA000A44EA000B01EAF2
:103F90000B0B4AEA0B0A534435441E444FEAF523FF
:103FA00083EAB51383EA7563994482EA07032B40D9
:103FB000534099440EF1040A58F82A304B445CF8F7
:103FC0002A904B444FEA763989EAB60989EAB6590C
:103FD00000EA060A40EA060B04EA0B0B4AEA0B0A5F
:103FE000D14419440F914B440B934FEAF12989EACC
:103FF000B11989EA71694A4487EA050901EA0909A0
:1040000087EA090991440EF1050A58F82A204A4422
:104010005CF82A904A444FEA733A8AEAB30A8AEA79
:10402000B35A06EA030946EA030B00EA0B0B49EA16
:104030000B09CA4404EB0209CDF8389052440A92A5
:104040004FEAF92484EAB91484EA7964274485EABA
:10405000010409EA04046C403C440EF1060A58F8D5
:104060002A703C445CF82A703C444FEA723787EA75
:10407000B20787EAB25703EA020A43EA020B06EAEA
:104080000B0B4AEA0B0A574420440D903C44099418
:104090004FEAF02787EAB01787EA70673D4481EA64
:1040A000090900EA090981EA090129440EF107001A
:1040B00058F8205029445CF8200001444FEA74303D
:1040C00080EAB40080EAB45002EA040522431340B7
:1040D0002B4303440E440C960B4408930EF1080E38
:1040E000BEF10F0F7FF6B9AE10263F2E00F24D82C3
:1040F0000F9A0C9B4FEAF32787EAB31787EA736797
:104100003A440E980D9D80EA05071F4047403A4407
:10411000DFF89CB45BF826701744B31E1A4610AB48
:10412000049253F822204FEAF24484EA724484EA6B
:104130009224F21F53F822201444A6F10F0A53F8D8
:104140002AC04FEABC4282EAFC1282EADC02144432
:10415000A6F1100253F82220224443F826203A44C4
:1041600008994FEA713C8CEAB10C8CEAB15E099F68
:104170003C460C400A990091089941EA070C0099C5
:1041800001EA0C0C44EA0C0CF4440B9C1444624409
:104190004FEAF42888EAB41888EA746880440C99D5
:1041A00081EA050904EA090985EA0909C844711C7C
:1041B0005BF821008044701E059053F820004FEA00
:1041C000F04C8CEA704C8CEA902CB01F53F8200015
:1041D0008444A6F10E0E53F82E904FEAB94080EABF
:1041E000F91080EAD900604453F82A9048440291BB
:1041F00043F8210008EB00094FEA723888EAB20858
:1042000088EAB258089901EA020041EA020C0197D3
:1042100007EA0C0C40EA0C0CC444009800EB0908B7
:10422000E1444FEAF82080EAB81080EA786005445B
:104230000C9981EA040008EA000048400544B01CDB
:1042400001465BF82000054453F826004FEAF04C85
:104250008CEA704C8CEA902C701F53F82000844438
:10426000A6F10D0A53F82A004FEAB04053F82A701D
:1042700080EAF71080EAD700604453F82EC060440B
:10428000039143F8210005444FEA793C8CEAB90CCC
:104290008CEAB95C02EA090042EA090E089901EACF
:1042A0000E0E40EA0E008444019F07EB050E05EB5D
:1042B0000C0700974FEAFE2080EABE1080EA7E607D
:1042C0000C990D1884EA08010EEA01016140681892
:1042D000F71C5BF827100144029D53F825004FEAB4
:1042E000F04585EA704585EA9025301F53F8200097
:1042F00005440195A6F10C0C53F82C004FEAB04090
:1043000053F82C5080EAF51080EAD500019D28442E
:1043100053F82A502844069743F827000144009890
:104320004FEA7035074685EAB00585EAB05509EAD7
:10433000000049EA070A02EA0A0A40EA0A000544BC
:10434000089800EB010A294401914FEAFA2585EA11
:10435000BA1585EA7A652C4488EA0E050AEA05054D
:1043600088EA05052544341D02945BF824000544C1
:10437000039953F821404FEAF44080EA744080EA00
:104380009420F41E53F824402044A6F10B0753F860
:1043900027104FEAB14484EAF11484EAD1040444BA
:1043A00053F82C002044029943F821000544019958
:1043B0004FEA713C8CEAB10C8CEAB15C009804467F
:1043C0000C4001460198084309EA0000204360447C
:1043D0002A440F9228440B904FEAF22C8CEAB21C2C
:1043E0008CEA726CC4448EEA0A08039202EA080856
:1043F0008EEA0808C444741D21465BF82440A44496
:10440000069D53F825504FEAF54484EA754484EA42
:104410009524049A53F822502C44A6F10A0853F824
:1044200028204FEAB24585EAF21585EAD2052544EF
:1044300053F827402C44049143F8214064444FEA48
:10444000703787EAB00787EAB057019901EA00059B
:1044500041EA000C009901EA0C0C45EA0C052F44D6
:1044600009EB040CCDF838C03C440A944FEAFC2711
:1044700087EABC1787EA7C677744039D8AEA050EC2
:104480000CEA0E0E8AEA0E0E774406F106095BF876
:1044900029502F44029D53F825504FEAF54E8EEADD
:1044A000754E8EEA952E059A53F82250AE44A6F129
:1044B0000902029253F8225029464FEAB54585EA8F
:1044C000F11585EAD105754453F828E0754443F8A1
:1044D00029502F444FEA743585EAB40585EAB4556E
:1044E00000EA040940EA040E019A02EA0E0E49EAC3
:1044F0000E09A9440099CD190D954F4409974FEA2B
:10450000F52E8EEAB51E8EEA756ED644039A82EABF
:104510000C0C05EA0C0C82EA0C02724406F1070846
:104520005BF8285002EB050E049953F821504FEA2E
:10453000F54282EA754282EA952253F826100A442F
:10454000A6F1080553F825C04FEABC4585EAFC15DD
:1045500085EADC052A44029D53F825502A4443F895
:10456000282072444FEA773383EAB70383EAB753CC
:1045700004EA0705274338402843184401991144A9
:104580000C91104408900836AFE50023079809E025
:1045900008AA52F82340991C50F82120224440F8E0
:1045A00021200133072BF3D9002051B0BDE8F08F53
:1045B000C48F000070B506460B4B53F8204000E056
:1045C0000834731C084A52F82330A3420AD965689C
:1045D0002368284698470028F2D0002DF0D0002309
:1045E000AB60EDE770BD00BFC490000038B5054674
:1045F0000F4C00E010340F4B9C4206D0A368002BF8
:10460000F8D02368AB42F5D110E0094C00E010343B
:10461000084B9C4209D0A368002BF8D0216828469B
:1046200001F019FE0028F2D100E00024204638BD38
:104630005C000020CC00002008B50348034A121A91
:10464000002101F04DFE08BD08010020C42C00200F
:1046500008B50648064A121A064901F01DFE064A28
:104660000649074801F018FE08BD00BF0000002001
:1046700004010020289100000000000028910000A3
:104680000000002008B50B4B01221A700220FFF732
:1046900091FF094A09490A4801F0B5F90320FFF7DB
:1046A00089FFFBF7A7FE074A137B23F0010313736F
:1046B00008BD00BFC02C0020CC8C0000DC900000A6
:1046C000FC9000000801002008B5FDF753F8184BD6
:1046D00083F30888174C636943F400736361E02334
:1046E00084F822300025E57725766576A576636A1D
:1046F00043F4E0236362FDF7F1FEFDF7B1FD4FF0F7
:10470000FF33A362E3622846FFF754FF0120FFF75F
:1047100051FF2A4629462846FFF7B4FF4FF02002F2
:10472000EFF3118382F31188BFF36F8FFEE700BFB1
:10473000C85C002000ED00E010B5064C0020064BE0
:104740009C4206D2204603F0EFFD002801DB1C341A
:10475000F5E710BDCC000020CC0000200A4B8342BE
:1047600008D04A680B6813604A685A6000230B60DF
:104770004B607047203B9B688B42F2D14B7B13F020
:104780001F0FEED0F5E700BFAC2C002038B5044673
:104790000E4D05F1200003F00DFEAA68537B13F0C7
:1047A000200F02D043F00803537348B15CB9537B28
:1047B00013F01F0F07D183692BB9044BDA6104E0B2
:1047C000024BD868F2E7014BD86138BD8C2C002031
:1047D00038B50546437B13F01F0F05D183690BB134
:1047E000002302E0012300E000230BB3154B53F834
:1047F000204F9C4224D064B12146284603F0AFFDEF
:10480000B8B934B10F4B5B6A9C4202D02468002CCB
:10481000F1D10C4B03F120022A605A6A6A601560DC
:104820005D626B7B63F07F036B730020FFF7AEFF6D
:1048300038BD63686B602C6063681D606560F0E77D
:104840000024D8E78C2C002038B50446183003F03B
:1048500038FE00234FF02002EFF3118582F3118818
:10486000BFF36F8F10E0637B43F010036373154B4E
:104870009868A04214BF00200120FFF787FF85F34E
:104880001188BFF36F8F012363B994F90D30002BAA
:10489000E9DA21460C48FFF761FF637B03F07F03F1
:1048A0006373E0E7074B9B68A34200D038BD4FF02D
:1048B0002003EFF3118083F31188BFF36F8F03F0B0
:1048C0006BFDF3E78C2C0020AC2C002070B5054666
:1048D000036E03B1984705F1180003F0F2FD0023C1
:1048E0004FF02002EFF3118682F31188BFF36F8F30
:1048F0001FE0012227E029462A48FFF72FFF6B7BA4
:1049000003F07F036B7324E013F0020F29D02846D5
:1049100003F021FD2946FFF721FF6B7B23F0020303
:104920006B730023AB601CE086F31188BFF36F8FBD
:1049300001231A46002B34D16B7B13F01F0F02D1D9
:10494000A9690029D5D012F0010FDDD013F0800F36
:10495000D1D1154B9868A84214BF00200120FFF761
:1049600015FF6B7B43F008036B7305F130032C6B71
:10497000A342D9D0002CD7D004F1180003F0A1FD38
:10498000204603F0E8FC2146FFF7E8FE637B23F0B6
:10499000020363730023A360A3672046FFF718FF99
:1049A000E3E770BDAC2C00208C2C002038B5B1F1B1
:1049B000FF3F08BFB0F1FF3F1AD003F0CEFC044622
:1049C000C5176901430141EAD062181A62EB050379
:1049D0009A0042EA907281001346081945EB0303DE
:1049E000DA0042EA5072C100C80B40EA424038BDCA
:1049F000034B9868FFF728FF4FF0FF30F7E700BF41
:104A00008C2C0020014B9868704700BF8C2C002034
:104A100038B504464FF02003EFF3118583F3118876
:104A2000BFF36F8F03F0E3FC40B10022826703F015
:104A3000C8FC2946064803F09CFC38BDA368E26820
:104A4000934203D001221344A360F2E70022FAE765
:104A5000B42C0020034B1868984200D07047002007
:104A6000FCE700BF5400002030B1044A5268904275
:104A700001D0006870470020704700BF540000203C
:104A800008B5044B1B680BB1002008BDFDF7A2FA66
:104A9000FBE700BFB42C0020F8B54FF02003EFF384
:104AA000118583F31188BFF36F8F284B1860FFF7D0
:104AB000D1FF044650B3D0E90467244B1B68D917D3
:104AC000B94208BFB34221D3214AD2E9000180197B
:104AD00041EBE671C2E900019B1B1C4A13600022F6
:104AE0000023C4E90423204603F0C6FC85F31188A3
:104AF000BFF36F8FA368204698474FF02003EFF372
:104B0000118583F31188BFF36F8FD0E744B10F4B4A
:104B10001968D4E90423521A63EBE173C4E904234E
:104B20000B480A490C68D0E90023121943EBE473DF
:104B3000C0E9002300240C6003F0B6FC2146FDF719
:104B40001BFA85F31188BFF36F8FF8BDB42C0020DA
:104B50008801002010B5064C064B9C4206D2A26884
:104B60006168204603F0CBFC1434F5E7002010BD4B
:104B7000CC000020CC00002070B582B0044601A912
:104B80000079FBF7C5FCA568019B1D4423681C89BF
:104B90002E194FF02002EFF3118382F31188BFF337
:104BA0006F8F01F0D0FAFCF71FFD2B5983F30888B3
:104BB000002383F314887368984702B070BD19B15D
:104BC000012903D102207047012070476FF01500C2
:104BD0007047FF20704770B516461D4601F0FDF87E
:104BE00050B90021A94205D2745CFF2C06D10131D5
:104BF000C9B2F7E7012001E04FF0FF3070BD2DE9A9
:104C0000F0439DB015469946249FDDF89480279C7B
:104C100001A803F074FA002101A8FFF7A5F814B168
:104C2000289B002B06DC2B89EE6833446E891E44DA
:104C3000002513E01A46214601A803F066FAF2E7C0
:104C400023463A462946484601F0C7F8034688B944
:104C50002246394601A803F058FA2544B54204D249
:104C6000741B4445ECD94446EAE7269901A803F0B1
:104C70008FFA002318461DB0BDE8F0832DE9F043FC
:104C800083B000284AD00C461746994606460029AC
:104C900047D0002A48D00D89CB681D4404230DEB72
:104CA00003022946384601F098F8804600283ED194
:104CB000BDF8042046F608139A421ED06389002BE3
:104CC0003BD1BDF8042046F607139A4238D1346030
:104CD0007760A6F808909DF82830B37263892B445A
:104CE000F36063892B44BDF80620134473610435D7
:104CF0003561404603B0BDE8F0836389BDF8061016
:104D00008B4217D104230DEB03022944384601F0EE
:104D100064F80028D5D04FF0FF38EAE74FF0FF38AD
:104D2000E7E74FF0FF38E4E74FF0FF38E1E74FF0F7
:104D3000FF38DEE74FF0FF38DBE74FF0FF38D8E70A
:104D40004FF0FF38D5E700284DD0F0B583B00F46BF
:104D500016461D4604460368002B48D043680BBB2B
:104D60004FF0FF313AE004230DEB03022169606844
:104D700001F033F8014600283CD1A37A1BB1226927
:104D8000E3689A4239D223894FF6FF72934217D0D3
:104D9000BDF80420934213D0BDF8060023691844DF
:104DA000043020612069636998421AD223685B89C4
:104DB000002BD8D0E3688342D5D104302061D2E7FC
:104DC00015B1BDF804302B80236904333B60BDF876
:104DD000063033802269134404332361084603B04C
:104DE000F0BD0121FAE74FF0FF31084670474FF060
:104DF000FF31F3E74FF0FF31F0E70121EEE72DE956
:104E0000F04184B004460E461546302303AA2946D5
:104E1000304601F026FEA8BB3368039A1344AB4228
:104E200033D104F108073A462946304601F02CFEFA
:104E300028BB04F1140842462946304601F024FEFE
:104E4000E8B9384602F028F960603368AB421FD1F8
:104E5000CDF804800022009213463946204603F024
:104E6000C9F8C0B92046FEF713FF0546B0B9384669
:104E700002F012F96060284604B0BDE8F0816FF0DE
:104E80000205F8E74FF0FF35F5E76FF00105F2E7AF
:104E90006FF00305EFE76FF00405ECE76FF0050531
:104EA000E9E7F0B5A5B006460F4600230893DF24D6
:104EB00007E025462A466946304601F0EDF92E44C2
:104EC000641B002C1DDD09A803F019F9002109A8B5
:104ED000FEF74AFF2022394609A803F016F90422FA
:104EE00008A909A803F011F9694609A803F050F9C7
:104EF0009DF8233001338DF823301F2CD9DD202578
:104F0000D8E725B0F0BD012800D170470220FCE7AA
:104F10002DE9F04383B00646884617461C4600F04C
:104F2000D9FF082C20D80546082802D94FF0FF30B9
:104F30001CE03046FFF74DFE8146A54200D22546D3
:104F400022463946684601F0A7F92A1B49460DEB6F
:104F5000040001F0C5F92B466A464146304600F090
:104F60005BFF18B1012001E04FF0FF3003B0BDE856
:104F7000F08300B583B08DF80420012301AAFFF768
:104F8000C7FF03B05DF804FB04280AD0052803D14D
:104F9000481E18BF01207047884214BF002001201E
:104FA00070470120704700EB4000C001704708B512
:104FB000FFF7F9FF303008BD0B78013BDBB2012B66
:104FC00002D84FF4C07070474FF0FF30704710B5F3
:104FD000044600F07FFFFFF7EAFFA368181A10BD30
:104FE00080682838704730B587B005460C46816820
:104FF000102302AA1039FFF7EEFD00284ADB012832
:105000003CD1032323702846FFF7EAFF0146012322
:105010000DF107022846FFF7DEFD00283DDB9DF875
:10502000073003F00F0262701B092371012801D0C1
:10503000042A03D90123637000232371A968012383
:10504000A21C20392846FFF7C6FD002827DB0128CF
:1050500019D0A078FFF757FFA070A9680123E21CC0
:1050600018392846FFF7B7FD00281ADB01280DD0B4
:10507000E078FFF748FFE07000200CE002A8FBF7A3
:1050800001FC2070BFE70323A370E6E70323E3706E
:10509000002000E0012007B030BD0120FBE7012027
:1050A000F9E70120F7E710B582B00C4601A9C0B2BC
:1050B000FCF756FE18B10124204602B010BD21466F
:1050C0000198FFF790FF0446019800F085FEF3E792
:1050D00030B583B00C4601A9FBF7E0FB054610B1E3
:1050E000284603B030BD019D2846FFF779FF042311
:1050F0002246A0F10801284600F06FFE05460198FF
:1051000000F06AFEECE708B5816801222039FFF75C
:1051100030FF08BD08B5816801221839FFF729FF63
:1051200008BD10B582B0044641EA02118DF807109F
:10513000FFF756FF014601230DF107022046FFF756
:10514000E7FE02B010BD10B582B004460191FFF732
:1051500047FF04230DEB0302A0F108012046FFF7EF
:10516000D7FE02B010BD08B5006A00F0B3FE08BD5E
:105170002DE9F04182B006460C4617460020FFF7A5
:105180001EFD01A9C0B2FCF7EBFD40B14FF00108D4
:10519000019800F021FE404602B0BDE8F0812C23CA
:1051A00003FB04631D89DB681D4404236A4629460A
:1051B000019800F012FE804640BB2C2101FB0464E4
:1051C0006489BDF8002046F608139A420CD004BB4F
:1051D000BDF8002046F607139A421DD12544BDF8BC
:1051E00002301D443D60D3E7BDF802108C4202D06E
:1051F0004FF00308CCE704236A462944019800F0E5
:10520000ECFD0028E4D04FF00108C1E74FF00108A1
:10521000BEE74FF00308BBE74FF00308B8E7F0B56F
:1052200083B007460C460020FFF7C9FC01A9C0B2B5
:10523000FCF796FDD0B906460198FFF7CAFC054673
:10524000019800F0C9FD2C2101FB04710023032B00
:1052500005D8CA5C954207D10133DBB2F7E70123D9
:105260003BB1304603B0F0BD0023F9E74FF0FF3605
:10527000F7E74FF0FF36F4E710B582B00346084673
:1052800080220192012905D002290ED11A6D03F165
:10529000540402E05A6A03F1280401A9FCF774FDE2
:1052A00008B9019B236002B010BD0120FBE738B5AF
:1052B00004460121FFF7E0FF10B10125284638BD63
:1052C00002212046FFF7D8FF054608B10125F5E782
:1052D0002046FFF748FFE065F0E7F8B505460F46C2
:1052E00016460024012C10DC33462C2202FB04520B
:1052F00021462846FBF7EEFE034608B90134F1E7E4
:10530000002C03DD17B9002300E000231846F8BD88
:1053100070B505460E460020FBF704FB0446022844
:1053200005D0042803D0032801D0204670BD3246A2
:1053300001212846FBF7BCFB012803D00028F4D04C
:105340000524F2E70446F0E7002383718360C3601D
:105350000123437103600371C37170474379012BCB
:1053600001D0002070470368012B01D00020704756
:105370000379012B01D0002070470120704738B518
:105380000546FBF7F5FB95F85840E31EDBB2012B11
:105390000DD9022C03D0042C01D0032C06D10020FF
:1053A00000F0D8F810B1FF2385F8583038BD002040
:1053B00000F0E3F80028ECD0FF2485F85840EAE735
:1053C00070B584B004460E4603A90120FCF7C8FC62
:1053D00030B10124039800F0FFFC204604B070BDFA
:1053E0000398FFF7F4FD0546E16D304600F0E5F85F
:1053F0002C18039800F06EFD05460398FFF7E9FBB3
:105400000146082201A800F06BFF33798DF80430C3
:105410002B4601AA2146039800F0FEFC0446002812
:10542000D8D00124D6E708B500F026FD08BD2DE947
:10543000F04706460F4600210846FFF7C0FB04462A
:1054400001210020FFF7BBFB3B789C4223D0984210
:1054500023D1012399462C2202FB03639C6A013C61
:10546000F06DFFF7A4FD804600252C2303FB0963A4
:105470005B6A03EBC402D2F804A053F834101B6833
:105480005246C91A3846FFF7CEFF013C5544A8459D
:10549000EBD8BDE8F0870023DCE70120F9E730B561
:1054A00083B00C46154669460220FFF7FCFDE979FA
:1054B00001290DD19DF80330012B0ED0A96820469B
:1054C000FFF741FE2046FBF71FFA002003B030BD76
:1054D00000222046FFF725FEECE72046FFF71AFEE4
:1054E000ECE770B582B006460D46FBF729FF04468F
:1054F000E86060B3022829D101A90120FCF730FC43
:1055000008B1012423E02A4631460198FBF73EFE0C
:10551000044618B1019800F05FFC18E00198FFF70D
:105520005FFD014601230DF103020198FFF753FBD4
:10553000012806D09DF8033003F00F03EB710446F9
:10554000E8E701238DF803302046F3E707242046DF
:1055500002B070BD10B582B001A90120FCF700FCBB
:1055600018B10124204602B010BD0198FFF7CBFD11
:105570000446019800F030FCF4E710B584B003A9AC
:105580000120FCF7EDFB18B10124204604B010BD4A
:1055900001A90398FFF727FD044660B99DF807307D
:1055A000032B03D0039800F017FCEEE70398FFF7F6
:1055B000B1FD0446F6E70124F4E730B44379012B4A
:1055C00010D0022201FB02F4012B0DD0CD01037992
:1055D000013B0268013A02FB04F201FB0321481976
:1055E00030BC70470122EDE70025F0E7002070474E
:1055F00038B504460D464520A04729465220A0470D
:1056000029465220A04738BD2DE9F04F83B081468E
:105610008A4690461D469DF83030019300264FF093
:10562000100B3746402407E009282AD95723514652
:105630001844C84701360127032C33DD043CC4F16C
:105640002002A4F1200328FA04F005FA02F2104324
:1056500025FA03F3184310F00F00E5D1002FE3D132
:10566000002CE1D00BF1FF3300930D9B9B4516DC22
:10567000019B012B07D0019B022B0AD0DDF800B063
:10568000DAE73023D3E751463020C847DDF800B0D1
:10569000D2E751462020C847DDF800B0CCE7DDF85E
:1056A00000B0C9E7019B032B02D003B0BDE8F08F27
:1056B0000D9BC6EB430603E051462020C847264613
:1056C000741E002EF8DCF0E72DE9F04F87B0074696
:1056D0000E46144605934FF000084FF0FF39C246BE
:1056E000454602E03146B84701342078002800F0F2
:1056F000878145B92528F5D14FF000084FF0FF39D3
:10570000C2460125F0E70246A0F12503552B00F221
:105710006981DFE813F062016701670167016701D2
:105720006701670167016F016701670156005D004E
:105730005D005D005D005D005D005D005D005D0081
:105740006701670167016701670167016701670119
:105750006701670167016701670167016701670109
:1057600067016701670167016701670167016701F9
:105770006701670167016701670167010C01670144
:1057800067016701670167016701670167016701D9
:1057900067015A018A0067016701670170008A008A
:1057A0006701670170006701670167010201670116
:1057B00067013A016701CF00670167010C016701CA
:1057C0007000B9F1000F03DABAF1000F00F0158193
:1057D000B9F1000F0CDB09EB890902EB4909A9F1CA
:1057E0003009BAF1000F7FF47FAF4FF0020A7BE778
:1057F000A2F13009F5E768280CD06C2810D0B8F178
:10580000000F0BD031462520B84731462078B847E5
:10581000002569E7B8F1680FEFD14820804663E7BB
:10582000B8F16C0FEBD14C20F8E7B8F17A0F0AD041
:10583000B8F16C0F17D0B8F14C0F19D0059B1A1D99
:1058400005921D6803E0059B1A1D05921D68002D39
:1058500029DBCDF8009053462A4631463846FBF7FF
:10586000EDFE002540E7059B1A1D05921D68EEE739
:10587000059B073323F0070303F1080205921D6817
:105880005B6815F10042029243F100030393DDE9E6
:105890000223012B08BF002AD9D331463846FFF72F
:1058A000A7FE002520E731462D20B8476D4209F1BB
:1058B000FF39CEE7B8F17A0F0AD0B8F16C0F14D0E7
:1058C000B8F14C0F16D0059B1A1D05921A6803E01B
:1058D000059B1A1D05921A68CDF800905346314673
:1058E0003846FBF7ABFE0025FEE6059B1A1D059228
:1058F0001A68F1E7059B073323F0070303F1080259
:105900000592D3E90023012B08BF002AE4D33146D6
:105910003846FFF76DFE0025E6E631463020B847F1
:1059200031467820B8474FF008094FF0010A237834
:10593000702B0BD0B8F16C0F17D0B8F14C0F1AD0F8
:10594000059B1A1D05921A68002304E0059B1A1D89
:1059500005921A680023CDF80490CDF800A03146D6
:105960003846FFF751FE0025BEE6059B1A1D05923D
:105970001A680023EFE7059B073323F0070303F1C1
:10598000080205921A685B68E5E7059B1A1D0592F7
:10599000D3F800B05D4602E001353146B8472878BB
:1059A0000028F9D1BAF1030F01D000259CE6A5EB40
:1059B0000B03A9EB030303E031462020B8472B4635
:1059C0005D1E002BF8DC00258EE6059B1A1D059256
:1059D00031461868B847002586E631462520B84785
:1059E000002581E631462520B84731462078B84762
:1059F000002579E64FF0030A76E64FF0010A73E6D8
:105A000007B0BDE8F08F0FB400B583B004A951F81A
:105A1000040B0191FBF76CFE03B05DF804EB04B0DE
:105A2000704770B400EBC1048268B2F5004F26D312
:105A300063685B08B2F5004F23D308250835A3EB54
:105A4000D5030133B3FA83F3C3F11F05C3F1230375
:105A500050F82330DBB9012303FA05F6C36833435A
:105A6000C360043540F82510B2F5004F0BD3A16098
:105A70008368B3F5004F08D3E16070BC704763885A
:105A8000D7E70425DAE7A180F2E7E180F5E700EB4C
:105A9000C306B2F5004F16D3B568B2F5004F14D364
:105AA000A5608268B2F5004F11D3E36000EBC50535
:105AB0008368B3F5004F0CD3E9608368B3F5004FFA
:105AC00009D3B160D9E7B588E7E7A580E9E7E380C6
:105AD000ECE7E980F1E7B180CFE7F8B50346B2F52E
